:0200000490006A
:1000000090A00020AD020090CB6B0090BD5F0090EF
:10001000C96B009009090090EB8800900000000077
:10002000000000000000000000000000917D009032
:10003000C1120090000000004F6D0090937D009071
:10004000C7020090C7020090C7020090C70200904C
:10005000C7020090C7020090C7020090C70200903C
:10006000C7020090C7020090C7020090DD0D00900B
:10007000C7020090C7020090C7020090C70200901C
:10008000C7020090C7020090C7020090C70200900C
:10009000C7020090C7020090C7020090C7020090FC
:1000A000C7020090C7020090C7020090C7020090EC
:1000B000C7020090C7020090C7020090C7020090DC
:1000C000C7020090C7020090C7020090C7020090CC
:1000D000C7020090C7020090C7020090C7020090BC
:1000E000C7020090C702009000000000C702009005
:1000F000C7020090C7020090C7020090C70200909C
:10010000C7020090C7020090C7020090C70200908B
:10011000C7020090C7020090C7020090C70200907B
:10012000C7020090C7020090C7020090C70200906B
:10013000C7020090C7020090C7020090C70200905B
:1001400000000000000000000000000000000000AF
:10015000C7020090C7020090C7020090C70200903B
:10016000C7020090C7020090C7020090C70200902B
:10017000C7020090C7020090D10D0090C702009006
:10018000C7020090C7020090C7020090C70200900B
:10019000C7020090C7020090C7020090C7020090FB
:1001A000C7020090C7020090C7020090C7020090EB
:1001B000C7020090C7020090C7020090C7020090DB
:1001C000C7020090C7020090C7020090C7020090CB
:1001D000C7020090C7020090C7020090C7020090BB
:1001E000C7020090C7020090C7020090C7020090AB
:1001F000C7020090C7020090C7020090C70200909B
:10020000C7020090C7020090C7020090C70200908A
:10021000C7020090E57E0090C7020090C7020090E0
:10022000C7020090C7020090C702009000000000C3
:10023000C7020090C702009000000000C7020090B3
:10024000C7020090C7020090C7020090C70200904A
:10025000C7020090C7020090C7020090C70200903A
:10026000C7020090C7020090C7020090C70200902A
:10027000C7020090C7020090C70200900000000073
:10028000C7020090C7020090C70200900000000063
:1002900000000000C7020090DFF80CD000F088FAE0
:1002A00000480047FDBF009090A00020064880470E
:1002B00006480047FEE7FEE7FEE7FEE7FEE7FEE74B
:1002C000FEE7FEE7FEE7FEE7497E00909902009018
:1002D0002DE9F05F0546002092469B46884606467B
:1002E000814640241BE0284641464746224600F00E
:1002F00097F853465A46C01A914110D311461846F2
:10030000224600F07EF82D1A67EB01084F46224680
:100310000120002100F075F817EB00094E41201E66
:10032000A4F10104DFDC484631462A464346BDE8D5
:10033000F09F40EA01039B0703D009E008C9121FA0
:1003400008C0042AFAD203E011F8013B00F8013B8F
:10035000521EF9D27047D2B201E000F8012B491EBB
:10036000FBD270470022F6E710B513460A46044652
:100370001946FFF7F0FF204610BD30B504460020B7
:10038000034600E05B1C934203D2E05CCD5C401B63
:10039000F8D030BD10B500F0004420F00040C20D90
:1003A000C0F3160040F400007F2A02DA0020014664
:1003B00010BD0021962A03DCC2F19602D04002E073
:1003C000963A00F01EF8002CF2D00023D0EB030088
:1003D00063EB010110BD30B50B4601460020202221
:1003E000012409E021FA02F59D4205D303FA02F542
:1003F000491B04FA02F52844151EA2F10102F1DCA2
:1004000030BD202A04DB203A00FA02F100207047B8
:100410009140C2F1200320FA03F319439040704742
:10042000202A04DB203A21FA02F00021704721FA49
:1004300002F3D040C2F120029140084319467047B0
:100440002DE9FE4F804681EA0300C00F0C46009064
:1004500021F0004123F00045B8EB0200A94105D28C
:100460004046214690461C460B46024623F000407B
:10047000104347D0270DC7F30A00C3F30A51029077
:10048000401A019040286BDAC3F3130040F4801B3C
:100490000098924620B10023D2EB030A63EB0B0BCA
:1004A00001985946C0F140025046FFF7AAFF0646A0
:1004B0000D4650465946019A00F08CF910EB0800A1
:1004C0006141002487EA115284EAE7731A4340D05D
:1004D000009A62B3019A012A4FEA075215DC001B09
:1004E00061EB02014FF0004202EA0752CDE90042FF
:1004F000001C41F5801132462B4600F08CF903B008
:10050000BDE8F08F40462146F9E7001B61EB020190
:10051000001C41F5801300185B412018A2F500175C
:1005200047EB030140EAD570B6196D4111E06D0843
:100530004FEA360645EAC0754FEA0752001B61EBE9
:100540000201001C41F5801149084FEA30000019F2
:10055000514132462B4603B0BDE8F04F00F04CB994
:100560000098012240000023D0EB020263EBE0730D
:10057000009821464FEAE074B8EB000061EB0401FB
:10058000E9E783F000435BE781F0004158E72DE99C
:10059000FE4F81EA030404F0004421F0004100947E
:1005A0004FF0000B23F0004350EA01045ED052EA02
:1005B00003045BD0C3F30A54C1F30A552C44A4F2DC
:1005C000F3340194A0FB0254C1F3130141F48011F0
:1005D000C3F3130343F4801301FB024400FB034EF7
:1005E000840A970A44EA815447EA8357A4FB0768C0
:1005F00002958D0A05FB07854FEA932C04FB0C54EA
:100600002705029D4FEA065847EA1637B5EB08055D
:100610006EEB070C870E920E47EA811742EA8312AF
:10062000A7FB0201B6EB0B0164EB00042B0D43EAC0
:100630000C335E1844EB1C50DA465146E7FB0201CE
:10064000C5F313044FEA0B3343EA14534FEA043261
:10065000019C43EA0603A4F10C040294009CCDE93A
:1006600000B400F0D8F803B0BDE8F08F00200146D8
:10067000F9E72DE9F04D81EA030404F0004B21F085
:10068000004514464FF0000A23F0004150EA0502ED
:1006900020D054EA01021DD0C5F30A570246C5F323
:1006A0001303C1F31300C1F30A5640F4801543F459
:1006B0008013A7EB0608101BD64608F2FD3873EB33
:1006C000050002D308F1010801E092185B41B8F17E
:1006D000000F03DA00200146BDE8F08D00204FF442
:1006E0008011064684460EE0171B73EB050705D301
:1006F000121B63EB050306434CEA010C49084FEA61
:10070000300092185B4150EA0107EDD152EA030034
:1007100012D082EA040083EA0501084305D0101BC9
:10072000AB4106D20122002306E000224FF0004335
:1007300002E06FF0010253101AEB06004CEB085177
:1007400010EB0A0041EB0B01BDE8F04D00F054B88E
:10075000C1F30A52C1F3130140F2FF3341F4801197
:100760009A4202DA00200146704740F233439A422F
:10077000A2F2334202DC5242FFF752BEFFF741BE03
:1007800030B5041E71F1000404DB4FF00044404218
:1007900064EB0101141E73F1000405DB1C464FF0ED
:1007A0000043524263EB0403994208BF904230BDBC
:1007B000064C074D06E0E06840F0010394E80700AE
:1007C00098471034AC42F6D3FFF76AFD6876019083
:1007D000A8760190202A06DBCB17203A41FA02F0D6
:1007E00043EAE07306E041FA02F3D040C2F120028E
:1007F000914008431946704710B5141E73F1000468
:1008000008DA401C41F1000192185B411A4301D102
:1008100020F0010010BD2DE9F04D92469B4611B12C
:10082000B1FA81F202E0B0FA80F220329046FFF78E
:10083000E8FD04460F4640EA0A0041EA0B01534630
:100840005A46084313D0114653EA010019D0C8F1A3
:1008500040025046FFF7E4FD05460E465046594615
:100860004246FFF7CEFD084305D0012004E02046B4
:100870003946BDE8F08D0020054346EAE0762C437A
:1008800037430A986305E40AA0EB08000022FD0A3A
:1008900044EA47540A3002D500200146E9E7010541
:1008A00010196941DDE9084500196941BDE8F04DBD
:1008B000A2E770B58C1810F8015B15F0070301D1A1
:1008C00010F8013B2A1106D110F8012B03E010F8B3
:1008D000016B01F8016B5B1EF9D12B0705D40023D6
:1008E000521E0DD401F8013BFAE710F8013BCB1A78
:1008F000921C03E013F8015B01F8015B521EF9D56D
:10090000A142D8D3002070BDFEE700001F4B00209D
:10091000F0B51968890311D4BFF34F8FBFF36F8F00
:100920001B490860BFF34F8FBFF36F8F196841F405
:1009300000311960BFF34F8FBFF36F8F1968C90380
:1009400023D4124970310860BFF34F8F081F43F65C
:10095000FF7400680E4D1035C0F34E31C0F3C9026C
:1009600004EA4116104600BF46EA80772F60401E19
:10097000FAD2491EF4D2BFF34F8F186840F480308A
:100980001860BFF34F8FBFF36F8FF0BD14ED00E021
:1009900050EF00E02DE9F041002408F072F9060064
:1009A00013D03048026840F251456B1C0021C2F35D
:1009B0000A020120A2F58067493F04D0AA4207D16C
:1009C00041F0010108E0014606E02046BDE8F08163
:1009D0009A4201D1012200E000224FF01803114396
:1009E000214908D08B608A68182A37D188608868C6
:1009F0000028FCD131E01D4D4FF00A471C4AD5F8C4
:100A000000C0B7EB4C5F08D113601168182925D1DD
:100A1000106010680028FCD11FE0D5F800C0CCF3AE
:100A20000A0CACF58067833F0AD02D684FF0104266
:100A3000B2EB455F12D18B608A68182A09D00DE0AD
:100A400013601168182909D1106010680028FCD1C2
:100A500003E0886088680028FCD10124304608F053
:100A60007BF9B2E7002004E0003002400010005C97
:100A7000084C025834482DE9F041016821F0010189
:100A8000016008F0FEF8314940F251450B686C1CDA
:100A900000210122C3F30A03A3F58066493E04D076
:100AA000AB4204D141F0010105E0114603E0A3424D
:100AB00001D1012300E00023254E264F194326498A
:100AC00008D08A608A68002AFCD10E600968B942A1
:100AD00035D0FEE7214D4FF00A4C214CD5F800E00F
:100AE0001F4B0833BCEB4E5F08D11A601968002910
:100AF000FCD126602168B94221D0FEE7D5F800E09C
:100B0000CEF30A0EAEF5806CBCF1830C0ED02C68CF
:100B10004FF01043B3EB445F11D18A608A68002A1A
:100B2000FCD10E600968B94209D0FEE71A60196865
:100B30000029FCD126602168B94200D0FEE708F008
:100B40000BF9BDE8F0810000002000E0002004E087
:100B5000C2A507F4CDB5E8B5003002400010005C36
:100B6000004C02582DE9F041284C42260F466421E2
:100B7000206020462671A16000F09CF8A08947F60D
:100B8000A275A84204D1E089A0F5EC41733912D0D6
:100B9000602020711D4800F08DF8A089A8420ED178
:100BA000E0896FF419510844022808DC3846BDE892
:100BB000F0410BF013BDBDE8F04106F01DB813483D
:100BC000267100F077F8A089A8420AD1E089A0F543
:100BD000EE402138022804DC3846BDE8F0410CF034
:100BE00061B878202071094800F064F8E089A0F528
:100BF000AC41403904D000202071E081BDE8F08193
:100C00003846BDE8F0410BF045BD0000CC97002010
:100C100037B582B00446806801231546009003AAC8
:100C200021792068491C02F0E3FAA06801230090B2
:100C30002A4621792068491C02F048FA002800D091
:100C4000012005B030BD3EB513460A468168012437
:100C500000930223CDE9014101790068491C02F0AB
:100C600059FB002800D001203EBD1CB502238DF8A1
:100C70000410117801AA8DF805108168009101799E
:100C8000006802F0B5FA002800D001201CBD17B59D
:100C900083B08468012305AA8DE81C00047902232F
:100CA00000680A46611C02F0E7FB002800D0012022
:100CB00006B010BD38B504466D4601202A468DF8B1
:100CC0000000207978281CD0FF212046FFF7CDFFB7
:100CD0001C216A462046FFF79BFF6A1C20461D2107
:100CE000FFF796FFBDF800000A216A4640BAA081CE
:100CF0002046FFF78DFF6A1C20460B21FFF788FF77
:100D00000CE0094843F20A01FFF79DFF06486A1C00
:100D100043F20B01FFF797FF0020A081BDF8000010
:100D200040BAE081002038BDCC97002010B5806B20
:100D3000816C496D022906D0012180F83510C16C03
:100D400041F04001C16400F039FB10BD10B5816B6A
:100D50000C468A6B886C0168CAB10A68A36B02F4FE
:100D60000022DB0706D12AB1C968E26B01EBC201A0
:100D7000002207E00A68120319D40969E26B01EB4B
:100D8000C201012200F04CFDA06B401E0EE008687D
:100D9000000302D5606CC86009E00868000306D44F
:100DA000E26B606C00EB82000861206CA063A06BBA
:100DB000216C88420BD12068C16841F00101C160FB
:100DC00020680068800702D5012084F8350010BD36
:100DD000014800F013BB00001C580024014801F03A
:100DE000DDB800006C580024294A016891423AD0CD
:100DF000274A1832914236D0254A3032914232D0B9
:100E0000234A483291422ED0214A603291422AD060
:100E10001F4A7832914226D01D4A9032914222D008
:100E20001B4AA83291421ED01A4A91421BD0194A3D
:100E30001832914217D0174A3032914213D0154AD6
:100E4000483291420FD0134A603291420BD0114A7E
:100E50007832914207D00F4A9032914203D00D4A26
:100E6000A832914211D1CAB21823103AB2FBF3F260
:100E70006FF30901032A02F00703074AD25CC26537
:100E800000D9091D81650846704721F0FF01F9E787
:100E900010000240100402400010019030B5224AB8
:100EA000012301689142CAB21BD01F4C1434A142E5
:100EB00017D01D4C2834A14213D01B4C3C34A14206
:100EC0000FD0194C5034A1420BD0174C6434A142BE
:100ED00007D0154C7834A14203D0134C8C34A14276
:100EE0000CD11421114C083AB2FBF1F10F4A8032B7
:100EF00001F01F0504EB8101AB4010E00C4D1824FC
:100F0000103A0D44B2FBF4F1A82D00D80831094A7B
:100F100001F01F0402EB8101064AA34080326030D9
:100F200080E80E0030BD00000854025800580258F6
:100F3000F0FBFDBF0008024010B50279531E072BDD
:100F40002DD8174C0168A1421BD0154C1434A14276
:100F500017D0134C2834A14213D0114C3C34A14279
:100F60000FD00F4C5034A1420BD00D4C6434A14231
:100F700007D00B4C7834A14203D0094C8C34A142E9
:100F800003D10849074C443102E00749064C44317B
:100F900004EB8202C0E91B2101219940416710BD89
:100FA00008540258FC580258FC08024010B58369E6
:100FB0004FF0C074826A0146002053B1B3F5005F60
:100FC00015D072B1012A0CD0022A0AD0032A09D105
:100FD00004E01AB1012A06D0022A03D1C96AC90164
:100FE00000D5012010BDC96AA142FAD010BD002A67
:100FF000F7D0012AF2D0022AF3D0032AF3D010BD91
:1010000030B5254D0468AC4238D0234D1835AC427C
:1010100034D0214D3035AC4230D01F4D4835AC4234
:101020002CD01D4D6035AC4228D01B4D7835AC42DC
:1010300024D0194D9035AC4220D0174DA835AC4284
:101040001CD0164DAC4219D0144D1835AC4215D0F9
:10105000124D3035AC4211D0104D4835AC420DD058
:101060000E4D6035AC4209D00C4D7835AC4205D000
:101070000A4D9035AC4201D0084DA83563608368B5
:10108000402B036803D099600068C26030BD9A604D
:101090000068C16030BD0000100002401004024032
:1010A0002DE9F04F804E804FDFF8FC911836DFF8C5
:1010B000F8A148370468856D0AF1300ADFF8ECB111
:1010C0004C45DFF8ECC1DFF8ECE16DD0B4426BD0F9
:1010D000544569D0BC4267D0DFF8D081A8F1180828
:1010E000444561D05C455FD064455DD074455BD0BC
:1010F000DFF8C481444557D0DFF8BC8108F11808F7
:10110000444551D0DFF8B08108F1300844454BD058
:10111000DFF8A48108F14808444545D0DFF89881FC
:1011200008F1600844453FD0DFF88C8108F1780869
:10113000444539D0DFF8808108F19008444533D028
:10114000DFF8748108F1A80844452DD0DFF86C81E0
:10115000444529D0DFF8648108F11408444523D0C0
:10116000DFF8588108F1280844451DD0DFF84C818C
:1011700008F13C08444517D0DFF8408108F15008D9
:10118000444511D0DFF8348108F1640844450BD0A0
:10119000DFF8288108F17808444505D0DFF81C8184
:1011A00008F18C08444509D1D0E91948C4F80480F5
:1011B000C46E1CB1D0E91C48C4F8048004684C45D6
:1011C0002ED0B4422CD054452AD0BC4228D0374E21
:1011D000183EB44224D05C4522D0644520D07445EA
:1011E0001ED0354EB4421BD0334E1836B44217D001
:1011F000314E3036B44213D02F4E4836B4420FD061
:101200002D4E6036B4420BD02B4E7836B44207D008
:10121000294E9036B44203D0274EA836B44215D199
:1012200090F85C603F2406F01F06B440AC60046890
:10123000256825F4802525602EE09A600068C1604D
:10124000BDE8F08F99600068C260F9E71B4EB442B8
:101250001BD01A4E1436B44217D0184E2836B4425A
:1012600013D0164E3C36B4420FD0144E5036B44212
:101270000BD0124E6436B44207D0104E7836B442CA
:1012800003D00E4E8C36B442DAD190F85C60012463
:1012900006F01F06B4406C60046863608368402BEE
:1012A0000368CFD1C9E70000100002408800024067
:1012B000A0000240B8000240100402400854025846
:1012C0007047FA21052005F049FAFAE7F0B5012642
:1012D000044600201E2301E05B1E05D303F01F0718
:1012E00006FA07F50D42F7D072B1082A0AD0102A83
:1012F00005D0182A01D1072B06D30120F0BD082BF9
:10130000FBD201E0102BF8D22368596121688B6869
:1013100023F0180313438B60F0BD000010B50400E8
:1013200010D0607F20B900202077204600F032F8EE
:1013300021790220607739B1D4E902122046FFF703
:10134000C5FF48B1012010BD2168114848612068DF
:10135000816821F0180181606079A0B1216820695D
:101360000861012220686369816821F060011943E6
:1013700081602068A369816821F080011943816040
:101380006277002010BD21684FF0FF30E8E70000D1
:10139000B71DC10408B500680649884208D106484F
:1013A000016841F400210160006800F40020009011
:1013B00008BD0000004C0258E0440258704700008D
:1013C00070B5054601F0CAFD0B4CE168401AB0F556
:1013D0007A7F06D301F0C2FD0021E060A068C4E975
:1013E0000101A06801212161401CA0602846BDE8E0
:1013F000704000F0DDB90000000000202DE9F04150
:1014000004460068234F0426056969070BD5466129
:10141000E06C40F00200E06484F83560A06C076581
:10142000A06C00F079FCA8070DD521680220486166
:10143000E06C40F00100E06484F83560A06C076562
:10144000A06C00F069FCE80605D521681020486111
:10145000204600F06FF8280705D52168082048616C
:10146000204600F0DBF9E80712D020680168890700
:1014700003D5C16821F01E01C16020680121C26846
:1014800022F00102C260206841612046FFF798FF08
:10149000BDE8F0812D0D00902DE9F041040003D04E
:1014A00094F8350018B105E00120BDE8F081204630
:1014B00000F042F8A16902204FF0000E84F83500D8
:1014C00009B1C4F824E02068194A0168114001609C
:1014D000D4E90452E168D4E9010C29431043A2691C
:1014E000084354F8201B40EA0C001043B4E8E8100D
:1014F0000A68184328433043384340EA0C0010433D
:10150000086054F8300C343C102805D12268E17F83
:10151000E06961F31F60906120680121C26842F0B8
:101520001E02C260C4F84CE084F835100020BCE70D
:1015300007F0E0FF70470000F0B587B006461421C1
:101540006846FEF70FFF4849306888427DD147481A
:10155000016841F001010160006800F001000590A0
:101560004248001D016841F010010160016801F06E
:1015700010010591016841F001010160016801F06D
:1015800001010591016841F004010160016801F069
:1015900004010591016841F008010160016801F052
:1015A00008010591016841F0020101600068002412
:1015B0000D27694600F00200059073200090022577
:1015C0002B48CDE90154CDE9034701F09DFB5020A4
:1015D0000090CDE9015427486946CDE9034701F061
:1015E00093FBC0200090CDE9015423486946CDE922
:1015F000034701F089FB08200090CDE901541F4802
:101600006946CDE9034701F07FFB80200090CDE9DA
:1016100001541B486946CDE9034701F075FB194D9C
:101620004B2119484FF4807C021585E813001701FF
:10163000C5E9034283142846C5E907C46C62C5E9BD
:10164000053701F01FF818B100E00BE0FFF739FE95
:101650000022B5644E201146AE6302F0BBF84E2066
:1016600002F0AAF807B0F0BD00000248DC440258BE
:10167000001002580000025800080258000C0258DE
:10168000000402586C5800241000024090F83410F6
:10169000012907D090F83520012180F83410052A5F
:1016A00002D009E002207047022180F8351001685D
:1016B0000A6842F001020A60002180F834100846EE
:1016C000704700002DE9F843044690F834000128E3
:1016D00033D0354802274FF0010884F834800025C4
:1016E00084F8357026684FF4803C6345376847F4CA
:1016F0008047376026684FF04009376827F00207B7
:1017000037602668376847EA01073760A16CC8630D
:10171000A66C2649F164A16C0D65A5632564E5639B
:1017200065640DD22168A06C283101F08DF980B379
:10173000C4F84C9084F8358027E00220BDE8F88397
:10174000A16C46464864C4F83880E363626405E0EF
:10175000E06B4008E063A06B4000A063E06B604575
:10176000F6D2A06B801EA063A36BE16BE06B2364D9
:10177000009002EB81032168A06C283100F098F8FA
:1017800038B1C4F84C9084F83560012084F83450A6
:10179000D4E7FFE72068016841F001010160002003
:1017A00084F83450CAE700004D0D00902D0D0090D4
:1017B000194A4FF4FA5130B5CC1090F8343015680E
:1017C0000022012BB5FBF1F101FB04F107D090F8E9
:1017D0003540012380F83430022C02D00FE0022083
:1017E00030BD052480F835400468256825F00105E2
:1017F0002560491E08D004682468E407F9D1002157
:1018000080F83410104630BDC16C032241F0200135
:10181000C16480F83530F2E70C0000247047000006
:101820000068214B984238D01F4B1833984234D06F
:101830001D4B3033984230D01B4B483398422CD04C
:10184000194B6033984228D0174B7833984224D0F4
:10185000154B9033984220D0134BA83398421CD09C
:10186000124B984219D0114B1833984215D00F4B98
:101870003033984211D00D4B483398420DD00B4B6A
:101880006033984209D0094B7833984205D0074B12
:101890009033984201D0054BA83312B1016100206A
:1018A0007047C160FBE700001000024010040240D6
:1018B0002DE9FF4F81B081689646044600200E9ABC
:1018C0008029009012D094F83400012813D094F8A5
:1018D0003500012184F8341001280ED0C9020120FE
:1018E00000906165009805B0BDE8F08F4FF48070FE
:1018F00060650120F7E70220F5E7FE4D022720682A
:10190000002684F83570A842FB4D6665FB4EFC4FFF
:10191000DFF8F093DFF8F0A3DFF8F0B33FD0A84290
:101920003DD0B0423BD0B84239D0484537D0504581
:1019300035D0584533D0DFF8D4C30CF1180C6045CE
:101940002DD0DFF8CCC3604529D0DFF8C4C30CF13B
:10195000180C604523D0DFF8B8C30CF1300C60459B
:101960001DD0DFF8ACC30CF1480C604517D0DFF890
:10197000A0C30CF1600C604511D0DFF894C30CF1EA
:10198000780C60450BD0DFF888C30CF1900C6045F3
:1019900005D0DFF87CC30CF1A80C604510D1D0F85D
:1019A00000C03F214CF4802CC0F800C020680361C7
:1019B00094F85C30A06D03F01F039940816010E043
:1019C000D0F800C048F220084CEA080CC0F800C06B
:1019D0002068036194F85C30A06D03F01F03994008
:1019E00041601346029972462046FFF709FBC94A37
:1019F000C84BDFF820E31432DFF8F8822833206880
:101A00000EF13C0EC34940455FD0A8425DD0B042C4
:101A10005BD0B84259D0484557D0504555D058456D
:101A200053D0DFF8E8C20CF1180C60454DD0DFF858
:101A3000E0C2604549D0DFF8D8C20CF1180C60450F
:101A400043D0DFF8CCC20CF1300C60453DD0DFF85C
:101A5000C0C20CF1480C604537D0DFF8B4C20CF1BD
:101A6000600C604531D0DFF8A8C20CF1780C6045FD
:101A70002BD0DFF89CC20CF1900C604525D0DFF82C
:101A800090C20CF1A80C60451FD088421DD0904236
:101A90001BD0984219D0704517D0DFF878C20CF1EE
:101AA000500C604511D0DFF86CC20CF1640C60453D
:101AB0000BD0DFF860C20CF1780C604505D0DFF880
:101AC00054C20CF18C0C604509D1D4E9190CC0F852
:101AD00004C0E06E18B1D4E91C0CC0F804C0C446C0
:101AE000206860453FD0A8423DD0B0423BD0B842CC
:101AF00039D0484537D0504535D0584533D0DFF838
:101B00000C8208F1180840452DD0DFF804824045CA
:101B100029D0DFF8FC8108F11808404523D0DFF810
:101B2000F08108F1300840451DD0DFF8E48108F16C
:101B30004808404517D0DFF8D88108F160084045D3
:101B400011D0DFF8CC8108F1780840450BD0DFF8E0
:101B5000C08108F19008404505D0DFF8B48108F154
:101B6000A808404518D1D0F8008028F01E0848F099
:101B70001608C0F800802068D0F8148048F080086B
:101B8000C0F81480206C08B9A06CC0B12068D0F8EF
:101B9000008048F0080810E0D0F8008028F00E0817
:101BA00048F00A08C0F80080206C08B9A06C30B179
:101BB0002068D0F8008048F00408C0F80080206851
:101BC000E046404557D0A84255D0B04253D0B84225
:101BD00051D048454FD050454DD058454BD0DFF8F7
:101BE0002CC10CF1180C604545D0DFF824C16045CC
:101BF00041D0DFF81CC10CF1180C60453BD0DFF878
:101C000010C10CF1300C604535D0DFF804C10CF187
:101C1000480C60452FD0DFF8F8C00CF1600C60452F
:101C200029D0DFF8ECC00CF1780C604523D0DFF848
:101C3000E0C00CF1900C60451DD0DFF8D4C00CF171
:101C4000A80C604517D0884215D0904213D0984216
:101C500011D070450FD02F49503188420BD02D49FB
:101C60006431884207D02B497831884203D0294912
:101C70008C3188420DD1206E0168C90303D50168FB
:101C800041F480710160E06E18B1016841F4807127
:101C900001602068404528D0A84226D0B04224D018
:101CA000B84222D0484520D050451ED058451CD0BF
:101CB00016491831884218D01549884215D0144960
:101CC0001831884211D01249303188420DD0104964
:101CD0004831884209D00E496031884205D00C490C
:101CE0007831884201D00A499031016841F0010100
:101CF0000160F7E510000240280002404000024069
:101D0000580002407000024088000240A0000240DB
:101D100010040240085402582DE9F05F28B190F8F1
:101D20003510022904D0802141650120BDE8F09FD3
:101D3000904C904B0168183C18338E4ADFF83C9267
:101D4000A1428D4CDFF838E28E4FDFF83CB2DFF86D
:101D50003CA28F4D8F4E31D091422FD099422DD041
:101D6000A1422BD0494529D0714527D0B94225D071
:101D7000DFF810C20CF1180C61451FD0DFF808C263
:101D8000ACF1600C614519D0DFF8FCC1ACF1480C36
:101D9000614513D0DFF8F0C1ACF1300C61450DD0D6
:101DA000DFF8E4C1ACF1180C614507D0594505D006
:101DB000514503D0A94201D0B1422CD1DFF8B4C1C2
:101DC0004FF0040880F83580ACF1180C61451DD047
:101DD00091421BD0994219D0A14217D0494515D044
:101DE000714513D0B94211D06648183081420DD0E8
:101DF00065486038814209D063484838814205D03F
:101E000061483038814201D05F481838086820F0B6
:101E100001000860ABE0D1F800C02CF00E08DFF83C
:101E200054C1C1F80080ACF1180C0168614527D09D
:101E3000914225D0994223D0A14221D049451FD0BB
:101E400071451DD0B9421BD0DFF838C10CF1180C18
:101E5000614515D0DFF830C1ACF1600C61450FD0A1
:101E6000DFF824C1ACF1480C614509D0DFF818C196
:101E7000ACF1300C614503D0DFF80CC1ACF1180CAB
:101E8000D1F800C02CF0010CC1F800C0DFF8E480EC
:101E90004FF0010C0168A8F11808414546D0914265
:101EA00044D0994242D0A14240D049453ED07145EC
:101EB0003CD0B9423AD0334A1832914236D0324AF5
:101EC000603A914232D0304A483A91422ED02E4A5E
:101ED000303A91422AD02C4A183A914226D059459C
:101EE00024D0514522D0A94220D0B1421ED02A4A46
:101EF00091421BD0284A1432914217D0264A2832E8
:101F0000914213D0244A3C3291420FD0224A50329F
:101F100091420BD0204A6432914207D01E4A783257
:101F2000914203D01C4A8C32914218D1016E0A684A
:101F300022F480720A6090F85C20816D02F01F022A
:101F40000CFA02F24A60D0E919124A60C16E31B14E
:101F50000A6822F480720A60D0E91C124A600022EA
:101F6000016D80F835C080F8342001B18847002029
:101F7000DCE60000280002405800024070000240E9
:101F800088000240A0000240700402408804024021
:101F9000A0040240B8040240085402582DE9FC5F36
:101FA0000446F74E0020DFF8D88300904FF4165215
:101FB000F44808F11808A56DDFF8C493DFF8C0A352
:101FC000016809F1300920680AF1480AB1FBF2F111
:101FD000B04201912F68D5F800C0DFF8ACB335D01E
:101FE0004146884232D0484530D050452ED05845E1
:101FF0002CD0E5491831884228D0E3493031884255
:1020000024D0E1494831884220D0E04988421DD09F
:10201000DE491831884219D0DC493031884215D068
:10202000DA494831884211D0DFF860E30EF1600EE2
:1020300070450BD0D54A7832904207D0D34B9033BD
:10204000984203D0D149A83188427DD194F85C20D0
:10205000082102F01F0201FA02F23A424AD0B042CD
:1020600032D0404530D048452ED050452CD0584530
:102070002AD0C54A1832904226D0C34A3032904204
:1020800022D0C14A483290421ED0C04A90421BD052
:10209000BE4A1832904217D0BC4A3032904213D018
:1020A000BA4A483290420FD0B84A603290420BD0C0
:1020B000B64A7832904207D0B44A9032904203D068
:1020C000B24AA832904203D1026802F0040202E050
:1020D000026802F008026AB1026822F0040202609B
:1020E00094F85C0000F01F008140A960606D40F032
:1020F0000100606594F85C00012100F01F00814040
:10210000394240D02068B04234D0404532D04845B2
:1021100030D050452ED058452CD09B4A1832904292
:1021200028D0994A3032904224D0974A483290427F
:1021300020D0964A90421DD0944A1832904219D02D
:10214000924A3032904200E0AFE113D08F4A4832D9
:1021500090420FD08D4A603290420BD08B4A783239
:10216000904207D0894A9032904203D0874AA832E1
:1021700090427DD1406910F0800F04D0A960606D5D
:1021800040F00200606594F85C00042100F01F003C
:10219000814039423ED02068B04232D0404530D0F4
:1021A00048452ED050452CD058452AD0764A183272
:1021B000904226D0744A3032904222D0724A48323D
:1021C00090421ED0714A90421BD0704A1832904201
:1021D00017D06E4A3032904213D06C4A4832904247
:1021E0000FD06A4A603290420BD0684A78329042EF
:1021F00007D0664A9032904203D0644AA832904297
:102200004ED1006810F0020F04D0A960606D40F05C
:102210000400606594F85C00102100F01F0081400C
:10222000394258D02068B04234D0404532D0484579
:1022300030D050452ED058452CD0534A18329042B9
:1022400028D0514A3032904224D04F4A48329042EE
:1022500020D04E4A90421DD04C4A1832904219D09C
:102260004A4A3032904215D0484A4832904200E003
:1022700014E00FD0454A603290420BD0434A783286
:10228000904207D0414A9032904203D03F4AA83250
:10229000904207D1006800F0080006E0006872E78D
:1022A0000068B7E7006800F00400A0B1A9602068EA
:1022B0000168490304D50068000308D5A16C07E054
:1022C0000168C90503D4016821F008010160216C8F
:1022D00009B12046884794F85C00202100F01F00D7
:1022E0008140394279D02068B04232D0404530D068
:1022F00048452ED050452CD058452AD0224A183275
:10230000904226D0204A3032904222D01E4A483293
:1023100090421ED01D4A90421BD01C4A1832904257
:1023200017D01A4A3032904213D0184A483290429D
:102330000FD0164A603290420BD0144A7832904245
:1023400007D0124A9032904203D0104AA8329042ED
:1023500003D1006800F0100002E0006800F0020005
:10236000B0B3A96094F835000428206801680FD044
:1023700049037ED5006800032BD4616C2AE000007D
:10238000100002400C0000247000024010040240C3
:1023900021F0160101602068416921F0800141614E
:1023A000206C08B9A06C20B12068016821F00801F8
:1023B000016094F85C303F21012003F01F030022EC
:1023C0009940A96084F8350084F83420216D65E0D7
:1023D00003E0E16B09B120468847606D00287DD09D
:1023E000606DC00759D02068042184F83510B042D0
:1023F0002BD0404529D0484527D0504525D05845B9
:1024000023D09D49884220D09B49183188421CD056
:1024100099493031884218D09849884215D0974957
:102420001831884211D09549303188420DD09349F6
:102430004831884209D091496031884205D08F499E
:102440007831884201D08D499031016821F0010135
:10245000016020680099019A491C0091914202D8BC
:102460000168C907F6D10068C00710D003200FE04B
:10247000FFE70168C905ACD403680121002223F0FD
:102480001003036084F8351084F83420A1E701209C
:1024900084F83500002084F83400E16C00291DD058
:1024A00002B02046BDE8F05F0847754988421DD05C
:1024B00073491431884219D071492831884215D0A6
:1024C0006F493C31884211D06D49503188420DD05E
:1024D0006B496431884209D0694900E084E0783171
:1024E000884203D066498C3188427DD194F85C8063
:1024F0000427016808F01F0807FA08F717EA0C0F0D
:10250000009746D04F0744D500980F04686003D564
:10251000C8033CD4A16CC1E7880638D42068B04217
:102520002DD055496039884229D0484527D050459B
:1025300025D0584523D05049884220D04E491831E3
:1025400088421CD04C493031884218D04B498842CF
:1025500015D04A491831884211D048493031884253
:102560000DD046494831884209D0704507D0904285
:1025700005D0984203D04149A831884203D101686F
:1025800021F0080102E0016821F004010160216CE2
:1025900084E7022707FA08F717EA0C0F00974ED0D6
:1025A0008F074CD500980F04686003D5C80344D446
:1025B000616C73E7880640D42068B0422FD02E4962
:1025C000603988422BD0484529D0504527D05845FE
:1025D00025D02949884222D02749183188421ED067
:1025E00025493031884200E044E018D02349884230
:1025F00015D022491831884211D020493031884203
:102600000DD01E494831884209D0704507D090420C
:1026100005D0984203D01949A831884203D10168F6
:1026200021F0140102E0016821F00A01016001219A
:1026300084F83510002084F83400E16B2EE708227E
:1026400002FA08F212EA0C0F14D0090712D5016839
:1026500021F00E01016094F85C100120002201F0CD
:102660001F0100FA01F16960606584F8350084F8A3
:10267000342012E7BDE8FC9F8800024010040240AD
:10268000085402582DE9F05F044600F067FC002C66
:1026900007467DD0E34E022120684FF00308DFF8A3
:1026A00088934FF00005DFF884A3B042DFF880B3D1
:1026B00034D0DC4A1832904230D048452ED05045B4
:1026C0002CD058452AD0DA4A1832904226D0D84A1F
:1026D0003032904222D0D64A483290421ED0D54A5B
:1026E00090421BD0D34A1832904217D0D14A303290
:1026F000904213D0CF4A483290420FD0CD4A603238
:1027000090420BD0CB4A7832904207D0C94A9032DF
:10271000904203D0C74AA83290427DD184F8351048
:10272000B04284F834502ED0BE49183188422AD0A5
:10273000484528D0504526D0584524D0BC491831AA
:10274000884220D0BA49303188421CD0B84948313B
:10275000884218D0B749884215D0B6491831884206
:1027600011D0B449303188420DD0B2494831884245
:1027700009D0B0496031884205D0AE4978318842ED
:1027800001D0AC499031016821F00101016008E0FD
:1027900027E100BF00F0E2FBC01B052801D9202182
:1027A0001CE120680068C007F4D104F1080021682A
:1027B000D4E9053C8E4685C809681043D4E907284A
:1027C0001F43636A38439C4F40EA0C001043394072
:1027D00040EA0800042B40EA010003D1D4E90B12BF
:1027E00011430843954909686FF30F01B1F1005F88
:1027F0000FD36168A1F12902052A08D9163A032AE4
:1028000005D9083A012A02D94F39032901D840F4E1
:102810008010CEF8000000E023E02068676A40697D
:10282000042F20F0070047EA00070DD1D4E90A0180
:10283000074349B12046FEF7B9FB28B14020606547
:10284000012184F83510CCE0206847612046FEF76E
:10285000CBFA94F85C203F2102F01F029140816086
:1028600054E0774A90421BD0754B1433984217D0EE
:10287000734B2833984213D0714B3C3398420FD09E
:102880006F4B503398420BD06D4B6433984207D056
:102890006B4B7833984203D0694B8C3398427DD18F
:1028A00084F8351084F83450664B0168A26801EA58
:1028B000030E402A73D0802A72D00022D4E9037814
:1028C000D4E9053142EAD70242EAD8085C4AD4E9A1
:1028D000077C48EAD30848EAD10141EAD7015242CD
:1028E00041EA1C11142341EA0E01016020681044E2
:1028F000B0FBF3F08000E0652046FEF775FA94F82F
:102900005C20012102F01F02914041602068B0422A
:1029100057D044491831884253D0484551D050458A
:102920004FD058454DD042491831884249D040498E
:102930003031884245D03E494831884241D03D49F6
:1029400088423ED03B49183188423AD0394930312B
:10295000884236D037494831884232D035496031D3
:1029600088422ED03349783188422AD0314990317B
:10297000884226D02F49A831884222D03049884247
:102980001FD02F49143188421BD02D49283188424D
:1029900017D02B493C31884213D002E01DE017E0EC
:1029A00018E02749503188420BD0254964318842CC
:1029B00007D023497831884203D021498C3188429D
:1029C00029D12046FEF76AFAA06880280CD00CE0D6
:1029D000102273E74FF4804270E74021616584F86C
:1029E00035800120BDE8F09F6560216E2079086088
:1029F000D4E9190141606068401E072808D82046C4
:102A0000FEF79AFAE06E0560D4E91C01416002E02D
:102A1000E566256765670120656584F83500002057
:102A2000E0E7000010000240400002405800024071
:102A300070000240100402403F8010FE0010005C55
:102A4000085402580F00FEFF2DE9F84F04008C4691
:102A50004FF00000009014D094F83400012812D0F8
:102A600094F835500120002184F83400012D0CD059
:102A7000C00260650120009084F834100098BDE821
:102A8000F88F0120FBE70220F9E78C4D0226206831
:102A900084F83560A8428A4D61658A4E8A4FDFF816
:102AA0002C82DFF82C92DFF82CA2DFF82CB226D093
:102AB000A84224D0B04222D0B84220D040451ED0F7
:102AC00048451CD050451AD0584518D083498842F3
:102AD00015D082491831884211D08049303188425E
:102AE0000DD07E494831884209D07C496031884206
:102AF00005D07A497831884201D07849903101680F
:102B000021F00101016061462046FEF7C9FA6B49D8
:102B1000206888422CD0A8422AD0B04228D0B8429F
:102B200026D0404524D0484522D0504520D0584595
:102B30001ED06A4A90421BD0684A1832904217D081
:102B4000664A3032904213D0644A483290420FD0E5
:102B5000624A603290420BD0604A7832904207D08D
:102B60005E4A9032904203D05C4AA83290420CD127
:102B7000026822F01E0242F016020260206C88B148
:102B80002068026842F008020BE0026822F00E02A0
:102B900042F00A020260206C20B12068026842F014
:102BA00004020260206888424BD0A84249D0B0425B
:102BB00047D0B84245D0404543D0484541D0504524
:102BC0003FD058453DD0454A90423AD0434A18320A
:102BD000904236D0414A3032904232D03F4A483259
:102BE00090422ED03D4A603290422AD03B4A783201
:102BF000904226D0394A9032904222D0374AA832A9
:102C000090421ED0364A90421BD0354A1432904230
:102C100017D0334A2832904213D0314A3C32904286
:102C20000FD02F4A503290420BD02D4A643290423E
:102C300007D02B4A7832904203D0294A8C329042F6
:102C40000DD1206E0268D20303D5026842F480726F
:102C50000260E06E18B1026842F48072026020687F
:102C6000884226D0A84224D0B04222D0B84220D0F8
:102C700040451ED048451CD050451AD0584518D064
:102C80001649884215D015491831884211D0134988
:102C9000303188420DD011494831884209D00F495E
:102CA0006031884205D00D497831884201D00B4906
:102CB0009031016841F001010160DFE6100002403F
:102CC00028000240400002405800024070000240CC
:102CD00088000240A0000240B800024010040240F8
:102CE0000854025870B5044600F038F90546601CD7
:102CF00002D004480078044400F030F9401BA042A0
:102D0000FAD370BD000000242DE9F84F03247D4D57
:102D100000234FF001094FF0B04B4FF00F0AE9E0EC
:102D200009FA03F73A4076D00E7906F00306012E31
:102D300001D0022E18D1D0F808C04FEA430ECE6859
:102D400004FA0EF82CEA080C06FA0EF646EA0C060F
:102D50008660D0F804C00E792CEA070CC6F3001682
:102D60009E4046EA0C0646600E79F643B6070BD045
:102D7000C6684FEA43088F6804FA08FC26EA0C0686
:102D800007FA08F73743C7600E7906F00306022EEC
:102D900012D1DE080F694FEA437C00EB8606B64687
:102DA000366A4FEADC6C0AFA0CF807FA0CF726EAE6
:102DB00008063743CEF820700F7906684FEA4308BB
:102DC00007F0030704FA08FC07FA08F726EA0C06DE
:102DD000374307604E6816F4403F1CD04A4E3768B0
:102DE00047F00207376036689F0706F00206009634
:102DF00023F0030606F1B046B6463F0FD6F8086446
:102E0000DFF808810AFA07FC404526EA0C0603D1E0
:102E10004FF0000C41E06CE0DFF8F4C0604502D1F7
:102E20004FF0010C39E0DFF8ECC0604502D14FF003
:102E3000020C32E0DFF8E0C0604502D14FF0030C35
:102E40002BE0DFF8D8C0604502D14FF0040C24E03D
:102E5000DFF8CCC0604502D14FF0050C1DE0DFF873
:102E6000C4C0604502D14FF0060C16E0DFF8B8C0D0
:102E7000604502D14FF0070C0FE0DFF8B0C06045AD
:102E800002D14FF0080C08E0DFF8A4C0604502D181
:102E90004FF0090C01E04FF00A0C0CFA07FC4CEA69
:102EA000060CCEF808C44F68DBF80060FF0226EA83
:102EB000020600D516435F46CBF80060D1F804C087
:102EC000DBF804605FEA8C2C26EA020600D5164384
:102ED0007E606E684F6826EA0206BF0300D516437F
:102EE0006E602E684F6826EA0206FF0300D516437F
:102EF0002E605B1C0A6832FA03F67FF411AFBDE85E
:102F0000F88F000080000058F44402580000025876
:102F10000004025800080258000C02580010025821
:102F20000014025800180258001C025800200258D1
:102F3000002402580AB1816170470904FBE70000D0
:102F400002480068C0F30B00704700000010005CEE
:102F500001480068000C70470010005C0148806860
:102F6000704700000000002430B590F84120202A6E
:102F700024D190F84020012A20D0012380F840304D
:102F8000242280F84120202300240268156825F0BF
:102F9000010515600268156825F480551560026802
:102FA00015680D43156001680A6842F001020A6065
:102FB00080F8413080F84040002030BD022030BD14
:102FC00030B590F84120202A22D190F84020012AE3
:102FD0001ED0012380F84030242280F84120202494
:102FE00000250268136823F0010313600268136868
:102FF00023F4706343EA0121116001680A6842F01A
:1030000001020A6080F8414080F84050002030BD45
:10301000022030BD70B5040004D094F841000025B2
:1030200010B106E0012070BD204684F8405000F049
:10303000CFFA242084F841002068016821F00101C2
:103040000160D4E9001020F0706008612068816898
:1030500021F400418160E06821680128A06806D061
:1030600040F404408860E068022803D006E040F4A1
:103070000040F7E721684FF4006048602021206895
:10308000114A4368134343602068C26822F4004237
:10309000C26054F8106B0DCC104340EA0320F0607E
:1030A00054F81C3CD4E900021043186054F81C0D7D
:1030B000026842F001020260656484F841102563F1
:1030C00084F84250002070BD008000022DE9F84FC6
:1030D000044690F841001F469046DDF828A08B4634
:1030E00020287ED194F8400001287AD0012084F86D
:1030F0004000FFF733FF0122064619230090D10359
:10310000204603F079F8E0BB0025222184F8411025
:10311000102084F8420065646785618DFF2732487E
:103120004FF00079C4F82480FF294FF08078656360
:1031300003D927853A46009039E0618D21850090BA
:103140003AE05946204603F03FF813E003F082F8D6
:10315000B8B92068616A406A0870606A401C6062A1
:10316000208D401E81B22185608D401E6085608D5E
:1031700000B169B1608D3246514600282046E5D144
:1031800000E002E003F0B4F8D0B10120BDE8F88F10
:103190000022534680212046009603F02DF8002897
:1031A000F3D1608DFF2804D927853A460095434620
:1031B000C7E7608D208500954B4694F82820C0E72E
:1031C00020682021094AC161206843681340436098
:1031D00084F8411084F84250002084F84050D5E72C
:1031E000FFE70220D2E700000024008000E800FE94
:1031F0002DE9F84F044690F841001F469046DDF84F
:1032000028A08B4620287ED194F8400001287AD04F
:10321000012084F84000FFF7A1FE01220646192391
:103220000090D103204602F0E7FFE0BB00252121FA
:1032300084F84110102084F8420065646785618D30
:10324000FF2732484FF00079C4F82480FF294FF05F
:103250008078656303D927853A46009039E0618D0F
:10326000218500903AE05946204602F0ADFF13E078
:1032700003F065F8B8B9606A216800788862606A0E
:10328000401C6062608D401E6085208D401E80B2B3
:103290002085618D01B168B1608D324651460028AC
:1032A0002046E5D100E002E003F022F8D0B1012091
:1032B000BDE8F88F0022534680212046009602F098
:1032C0009BFF0028F3D1608DFF2804D927853A465B
:1032D00000954346C7E7608D208500954B4694F8DE
:1032E0002820C0E720682021094AC161206843687E
:1032F0001340436084F8411084F84250002084F861
:103300004050D5E7FFE70220D2E700000020008010
:1033100000E800FE2DE9FF4F83B0044690F841001D
:103320009A469346DDE91087DDF84890202874D14D
:103330005FEA080014D09FB194F8400001286CD0D7
:10334000012084F84000FFF709FE012206461923F8
:103350000090D103204602F04FFF002871D103E016
:103360004FF4007060646CE00025C4F824802221D2
:1033700084F84110402084F8420065646785534614
:1033800065635A4604992046CDE9009602F0B8FEDE
:1033900010B184F8405054E0618DFF2734484FF05D
:1033A0008078FF294FF0007A04D927853A464346B2
:1033B000009005E0618D53462185009094F8282007
:1033C0002046049902F000FF00224B4604212046CB
:1033D000009602F011FFA0BB2068616A406A087085
:1033E000606A401C6062208D401E81B22185608D24
:1033F000401E6085608DD8B1D1B900224B46802136
:103400002046009602F0F8FED8B9608DFF2805D955
:1034100027853A464346009506E026E0608D5346F0
:103420002085009594F828202046049902F0CCFECF
:10343000608D0028C8D132464946204602F058FF28
:1034400018B1012007B0BDE8F08F21682020094A9B
:10345000C86121684B6813404B6084F8410084F8D0
:103460004250002084F84050ECE70220EAE70000D8
:103470000024008000E800FE2DE9FF4F83B00446E1
:1034800090F841009A469346DDE91087DDF84890B0
:10349000202871D15FEA080014D09FB194F8400051
:1034A000012869D0012084F84000FFF757FD012270
:1034B000064619230090D103204602F09DFE002805
:1034C0006ED103E04FF40070606469E00025C4F839
:1034D0002480212184F84110402084F84200656452
:1034E0006785534665635A4604992046CDE90096A0
:1034F00002F038FE10B184F8405051E0608DFF2793
:103500004FF08078FF284FF0007A04D927853A469B
:103510004346009505E0608D53462085009594F85C
:1035200028202046049902F04FFE324649462046A4
:1035300002F005FFA0BB606A216800788862606ABB
:10354000401C6062608D401E6085208D401E80B2F0
:103550002085618DD9B1D0B900224B46802120460B
:10356000009602F049FED8B9608DFF2805D927855D
:103570003A464346009506E026E0608D5346208596
:10358000009594F828202046049902F01DFE608DD5
:103590000028CAD132464946204602F0A9FE18B199
:1035A000012007B0BDE8F08F20682021074AC161E3
:1035B000206843681340436084F8411084F8425007
:1035C000002084F84050ECE70220EAE700E800FE23
:1035D00010B5B6B0044614212FA8FCF7C3FEBC21D9
:1035E0006846FCF7BFFE1849206888422AD10820A7
:1035F000009000246846209400F09EFA08B1FDF780
:1036000060FE1248016841F00201016000680DF19E
:10361000BC0C122100F002003490012204233393E9
:103620004FF440708CE8170009482FA9FFF76CFB96
:1036300006480830016841F400110160006800F498
:103640000010349036B010BD00540040E0440258E1
:103650000004025802488168027811448160704772
:1036600000000024032010B500F0D4F801F042F867
:103670000F4A104914681368C4F3032203F00F03C0
:103680008A5CC95C02F01F0201F01F01D0400A4AA7
:1036900020FA01F1116009490860002000F010F8DB
:1036A00008B1012010BD00F079F8002010BD000025
:1036B0001844025830100190100000240C0000241F
:1036C00070B50D4D04462878A0B14FF47A71B1FB66
:1036D000F0F00A490968B1FBF0F002F04DF848B982
:1036E000102C07D200222146501E00F073F8002053
:1036F0006C6070BD012070BD000000240C0000242F
:10370000F0B5154C4378211D0A1D23600378F3B1F1
:1037100043680B60057BC67A817A437B2D07847BE7
:1037200045EA0665C77B90F809C0067A90F800E084
:1037300045EAC14040EA834040EA444040EA07404D
:1037400040EA0C2040EA460040EA0E0001E000207A
:1037500008601060F0BD000098ED00E0BFF35F8FDF
:10376000044800210368034A23F480330360703265
:103770001160704724ED00E0074A40F0010006495F
:1037800070321060086840F480300860BFF34F8FDB
:10379000BFF36F8F7047000024ED00E0054808B5C7
:1037A000016841F002010160006800F00200009031
:1037B00008BD0000F4440258002809DB410900F06C
:1037C0001F028900012001F1E0219040C1F80001B1
:1037D000704700000E4BF0B41B680D46C3F3022384
:1037E000C3F10706042E00D90426191D072901D2AA
:1037F000002300E0DB1E012404FA06F19C40491E70
:103800002940641E994014402143F0BC05F0A5B83E
:103810000CED00E0064900F0070210B54FF6FF047A
:103820000868044B204040EA02201843086010BD9D
:103830000CED00E00000FA05134970B50A68D243A8
:10384000520705D5096801F00701814213D118E03C
:103850000A6822F0070202430A60FFF77FFB0A4D65
:103860004FF47A760446083D07E000BFFFF776FB89
:10387000001BB04201D9012070BD2868C0438004FC
:10388000F4D4002070BD00000C48025810B500F0C0
:10389000EBFE05490968054AC1F30211515C01F0CC
:1038A0001F01C84010BD0000204402583010019094
:1038B000494930B5484C0B1D0A68143409681D6825
:1038C000246802F00303C5F30012C1F30531C4F309
:1038D000CC04002914FB02F200EE102AF8EE400A94
:1038E00075D03F4A9FED3D1AB7EE000A6BB1DFED90
:1038F0003D1A012B01D0022B64D002EE101A116880
:10390000F8EE422A81EEA22A21E0334C283C2368BB
:103910009B0612D5344B246801EE901A1168C4F34B
:10392000C104F8EE612AE34001EE903AC1F30801C8
:10393000F8EE611A81EEA22A0BE001EE901ADFED9B
:103940002B2A00BFF8EE611A116882EEA12AC1F39A
:10395000080101EE901A1168F8EE611A40EE811A22
:1039600071EE800A62EE200AC1F3462101EE101AC0
:10397000B8EE411A31EE001AC0EE811ABCEEE11A1F
:1039800080ED001A1168C1F3064101EE101AB8EE7D
:10399000411A31EE001AC0EE811ABCEEE11A80ED38
:1039A000011A1168C1F3066101EE101AB8EE411A4E
:1039B00031EE000A80EE801ABCEEC10A80ED020AE8
:1039C00030BD04E001EE901ADFED092ABAE70021CC
:1039D000016041608160F3E728440258000000392B
:1039E000384402580024744A0090D0030024744CD8
:1039F00020BCBE4B494930B5484C0B1D0A681C34ED
:103A000009681D68246802F00303C5F30022C1F3AE
:103A10000551C4F3CC04002914FB02F200EE102A75
:103A2000F8EE400A75D03F4A9FED3D1AB7EE000A06
:103A30006BB1DFED3D1A012B01D0022B64D002EEF9
:103A4000101A1168F8EE422A81EEA22A21E0334CC6
:103A5000283C23689B0612D5344B246801EE901A4B
:103A60001168C4F3C104F8EE612AE34001EE903A14
:103A7000C1F30801F8EE611A81EEA22A0BE001EE13
:103A8000901ADFED2B2A00BFF8EE611A116882EE62
:103A9000A12AC1F3080101EE901A1168F8EE611A2B
:103AA00040EE811A71EE800A62EE200AC1F34621CF
:103AB00001EE101AB8EE411A31EE001AC0EE811A6A
:103AC000BCEEE11A80ED001A1168C1F3064101EE67
:103AD000101AB8EE411A31EE001AC0EE811ABCEE8F
:103AE000E11A80ED011A1168C1F3066101EE101AA6
:103AF000B8EE411A31EE000A80EE801ABCEEC10A1F
:103B000080ED020A30BD04E001EE901ADFED092AD3
:103B1000BAE70021016041608160F3E72844025860
:103B200000000039404402580024744A0090D00339
:103B30000024744C20BCBE4B2DE9FC5F044650F8B9
:103B4000241B002500902E460801FE4FDFF8F88365
:103B50001DD5606E50B1B0F5801F0CD0B0F5001FC0
:103B60000ED0B0F5401F1DD001250FE0386840F49D
:103B70000030386016E00221201D03F0E9F803E070
:103B80000098022103F074F905000BD02E4620881E
:103B9000C00523D5606D05281ED2DFE800F00C11AA
:103BA000161B1B00626ED8F8001021F4401111435F
:103BB000C8F80010EBE7386840F40030386009E0DE
:103BC0000021201D03F0C4F803E00098002103F059
:103BD0004FF905466DB100E001252E46208880058D
:103BE00028D5A06D80281ED00CDC90B140280ED1C5
:103BF00014E0626DD8F8001021F007011143C8F8F5
:103C00000010EBE7C02813D0B0F5807F10D001255D
:103C10000FE0386840F40030386009E00021201DD2
:103C200003F096F803E00098002103F021F905461F
:103C300095B12E462088DFF81093400509F1080958
:103C40002CD5D4F8A400B0F5800F20D00DDCA0B1A5
:103C5000B0F5001F0FD115E0A26DD8F8001021F4C7
:103C6000E0711143C8F80010E4E7B0F5C00F13D0BD
:103C7000B0F5000F10D001250FE0386840F4003097
:103C8000386009E00021201D03F062F803E000988D
:103C9000002103F0EDF8054675B12E462088000599
:103CA0002DD5D4F8A800B0F1007F21D00EDCA8B14A
:103CB000B0F1807F10D116E0D4F8A420D9F800101C
:103CC00021F460011143C9F80010E7E7B0F1407F2B
:103CD00013D0B0F1806F10D001250FE0386840F4A8
:103CE0000030386009E00021201D03F031F803E0C6
:103CF0000098002103F0BCF805466DB12E462068FF
:103D000080011FD5A06CD8B110280FD0202812D068
:103D1000302815D0012514E0D4F8A820D9F80010D7
:103D200021F0E0611143C9F80010E8E7386840F479
:103D30000030386004E00221201D03F009F8054638
:103D40006DB12E462088C0042BD5E06DB0F5005F24
:103D500020D00DDCA0B1B0F5805F0FD115E07A481E
:103D6000A26C001F016821F0300111430160E9E7F6
:103D7000B0F5405F13D0B0F5804F10D001250FE0B3
:103D8000386840F40030386009E00021201D02F05E
:103D9000DFFF03E00098002103F06AF8054685B1D3
:103DA0002E462088800429D5206EB0F5403F23D0D0
:103DB00010DC08B3B0F5803F14D0B0F5003F0FD150
:103DC00015E0E26DD8F8001021F4E0411143C8F885
:103DD0000010E6E7B0F5802F0ED0B0F5A02F0BD085
:103DE00001250AE00121201D02F0B2FF03E0009846
:103DF000012103F03DF805468DB12E462088400490
:103E00002AD5D4F8AC00B0F1405F23D010DC08B361
:103E1000B0F1805F14D0B0F1005F0FD115E0226ED9
:103E2000D8F8001021F4E0211143C8F80010E5E7AC
:103E3000B0F1804F0ED0B0F1A04F0BD001250AE0B9
:103E40000121201D02F084FF03E00098012103F00E
:103E50000FF805466DB12E46208800041FD5E06E90
:103E6000D8B1B0F1805F0ED0B0F1005F10D0012565
:103E700014E0D4F8AC20D9F8001021F0E04111434F
:103E8000C9F80010E8E7386840F40030386004E012
:103E90000121201D02F05CFF05466DB12E46206811
:103EA000C0011ED5606CD0B101280ED0022811D0FF
:103EB000032814D0012513E0E26ED8F8001021F099
:103EC00040511143C8F80010E9E7386840F4003069
:103ED000386004E00221201D02F03AFF054685B15A
:103EE0002E462068DFF85CB04002ABF11C0B57D5C2
:103EF0001648016841F480710160FFF72FF882468F
:103F00000EE01148626C001F016821F003011143AB
:103F10000160E6E7FFF722F8A0EB0A0064283DD82D
:103F20000A480068C005F5D57DBBDFF81CA0B4F8D1
:103F3000B0200AF1200ADAF8001002F4407001F40F
:103F4000407105E02C440258504402580048025881
:103F5000814211D0DAF80010DAF8002021F4407123
:103F600042F48032CAF80020DAF8002022F48032CD
:103F7000CAF80020CAF80010D4F8B000B0F5807F6D
:103F800021D1FEF7EBFF019019E008E0FEF7E6FF14
:103F90000199411A41F28830814210D903252E46F9
:103FA0002078DFF844A4C0073DD0A06F182838D08F
:103FB00026DC80B3082829D0102825D12CE0DAF897
:103FC00000008007E2D5D4F8B010C1F30120032827
:103FD00058460DD0016821F47C510160B4F8B0203E
:103FE000DAF80010C2F30B021143CAF80010D7E749
:103FF000FE4A036802EA111223F47C511143ECE7F4
:1040000020280ED028280CD001250BE00121201DEE
:1040100002F09EFE04E004E00098012102F028FF77
:1040200005465DB12E46207880071ED5606F0628B4
:1040300019D2DFE800F0160C11161616A26FDAF886
:10404000001021F038011143CAF80010EBE70121FC
:10405000201D02F07DFE03E00098012102F008FF20
:10406000054675B100E001252E46207840071FD592
:10407000D4F89000062819D2DFE800F0160C1116CB
:104080001616626FDAF8001021F007011143CAF822
:104090000010EAE70121201D02F05AFE03E000981B
:1040A000012102F0E5FE05469DB100E001252E4606
:1040B000207880062BD5D4F88C00B0F1405F24D056
:1040C00011DC10B3B0F1805F15D0B0F1005F10D1FA
:1040D00016E0D4F89020D9F8001021F00701114320
:1040E000C9F80010E4E7B0F1804F0ED0B0F1A04F56
:1040F0000BD001250AE00021201D02F029FE03E07B
:104100000098022102F0B4FE05468DB12E462078BB
:1041100040062BD5D4F89800B0F5406F24D011DCC0
:1041200010B3B0F5806F15D0B0F5006F10D116E068
:10413000D4F88C20DAF8001021F0E0411143CAF8DD
:104140000010E4E7B0F5805F0ED0B0F5A05F0BD0B3
:1041500001250AE00021201D02F0FAFD03E000988D
:10416000022102F085FE05468DB12E46207800061C
:104170002BD5D4F89C00B0F5C04F24D011DC10B37F
:10418000B0F5005F15D0B0F5804F10D116E0D4F82F
:104190009820D9F8001021F4E0511143C9F800101B
:1041A000E4E7B0F5004F0ED0B0F5204F0BD001255D
:1041B0000AE00021201D02F0CBFD03E0009802215F
:1041C00002F056FE05464DB12E46207800071ED55A
:1041D000D4F88000B0F5805F0AD00FE0D4F89C20BE
:1041E000D9F8001021F460411143C9F80010ECE740
:1041F0000098022102F03CFE00B10126D4F8802094
:10420000DAF8001021F440511143CAF80010207868
:10421000C00613D5D4F89400B0F5807F05D100987E
:10422000022102F025FE00B10126D4F89420D9F82D
:10423000001021F440711143C9F8001020680003F8
:1042400016D5D4F8A00038B1B0F5803F09D0B0F54C
:10425000003F0BD001250AE00021201D02F078FD6F
:1042600003E00098022102F003FE054685B12E46C8
:104270002068400322D5D4F88400B0F5801F11D007
:10428000B0F5001F13D0B0F5401F15D0012514E084
:10429000D4F8A020D9F8001021F440311143C9F816
:1042A0000010E5E7386840F40030386004E000981A
:1042B000012102F0DDFD054655B12E462068C00300
:1042C0001CD5E06C70B1B0F5803F10D0012514E032
:1042D000D4F88420DAF8001021F440111143CAF810
:1042E0000010EBE7386840F40030386004E0022149
:1042F000201D02F02DFD0546CDB12E462068800020
:1043000005D50098022102F0B3FD00B10126206816
:1043100080031BD5E06FB8B1B0F5807F10D0B0F549
:10432000007F11D0B0F5407F0ED001250DE02E4862
:10433000E26C0838016821F4803111430160DDE747
:10434000386840F400303860F5B32E462068C0026B
:1043500007D5226FD8F8001021F000411143C8F8AA
:1043600000102068C00008D5D4F8B420DBF8001095
:1043700021F480411143CBF800102068800207D55A
:10438000A26ED8F8001021F080711143C8F8001017
:10439000206840000CD5DBF8001021F40041CBF878
:1043A0000010DBF80010D4F8B8201143CBF800104F
:1043B0002068002807DA0C48226D0838016821F0CF
:1043C00040511143016000E014E02068000208D56C
:1043D000D4F88820DAF8001021F440011143CAF81B
:1043E000001086B1012003E054440258CFFFFF00C3
:1043F000BDE8FC9FE26FDAF8001021F44071114330
:10440000CAF80010A2E70020EDE700002DE9F05FF8
:1044100004000F467ED0DFF83882D8F8000000F0A4
:104420000F00B8420CD2D8F8001021F00F01394328
:10443000C8F80010D8F8000000F00F00B84269D1A9
:104440002078844D40070AD52069296801F0700161
:10445000884204D9296821F070010143296020783D
:104460007C4E361D00070AD56069316801F0700185
:10447000884204D9316821F070010143316020780D
:10448000C0060AD5A069316801F4E061884204D908
:10449000316821F4E061014331602078DFF8B4B184
:1044A00080060BF1080B0CD5E1695846DBF80020BB
:1044B00002F07002914204D9026822F070020A43AD
:1044C0000260207880070AD5E068296801F00F01B2
:1044D000884204D9296821F00F010143296020781E
:1044E000C0073ED05B49A2682868183920F4706084
:1044F000104328606068022818D0032819D0096882
:10450000012819D0490700294ADADFF848A1AAF1A1
:10451000080A00E044E0DAF8002022F00702024333
:10452000CAF80020FEF71AFD814612E009688903E7
:10453000E9E709688901E6E7C905E4E7FEF70EFD4A
:10454000A0EB090141F28830814202D90320BDE885
:10455000F09F6168DAF8000000F03800B0EBC10F9E
:10456000ECD1207880070AD5E068296801F00F01B6
:10457000884204D2296821F00F0101432960D8F84C
:104580000010404601F00F01B9420BD9016821F03B
:104590000F0139430160006800F00F00B84201D0FC
:1045A0000120D4E7207840070AD52069296801F066
:1045B0007001884204D2296821F07001014329600A
:1045C000207800070AD56069316801F070018842DF
:1045D00004D2316821F07001014331602078C006B7
:1045E0000AD5A069316801F4E061884204D23168DB
:1045F00021F4E06101433160207880060CD5E16947
:104600005846DBF8002002F07002914204D20268A2
:1046100022F070020A43026000F06CF80E492A682A
:104620002B68C2F3032203F00F038A5CC95C02F01B
:104630001F0201F01F01D040084A20FA01F1116069
:104640000749086007480068BDE8F05FFFF738B821
:10465000002000521844025830100190100000242D
:104660000C0000240400002430B500F043F80B4A8D
:104670000B490C4B15681468C5F3032204F00F04B2
:104680008A5C095D02F01F0201F01F01D040064A5A
:1046900020FA01F119601060084630BD1844025834
:1046A00030100190100000240C00002400B5FFF72A
:1046B000DBFF05490968054AC1F30211515C01F0AD
:1046C0001F01C84000BD00001C440258301001907A
:1046D00000B5FFF7C9FF05490968054AC1F3022182
:1046E000515C01F01F01C84000BD00001C4402588D
:1046F00030100190454970B545480968434B103B5F
:1047000011F0380208D00111082A03D0102A0BD06A
:10471000182A0BD0084670BD19688906FBD51968A0
:10472000C1F3C101C84070BD3A4870BD3749374D2B
:1047300018310C1D24350A68096826682D6802F0B6
:10474000030406F00102C1F30511C5F3CC0515FB06
:1047500002F200EE102AB8EE400AE9B32F4ADFED6C
:104760002E0AB7EE001A6CB1DFED2D1A012C01D024
:10477000022C43D002EE101A1068F8EE422A81EEA5
:10478000A22A1EE01C68A40611D51B6801EE901A2F
:104790001168C3F3C103F8EE612AD84001EE900A14
:1047A000C1F30800F8EE611A81EEA22A0BE001EED7
:1047B000901ADFED1C2A00BFF8EE611A106882EE35
:1047C000A12AC0F3080001EE900AF8EE611A40EE4B
:1047D000201A31EE810A00E015E022EE000A10688E
:1047E000C0F34620401C00EE900AF8EE600A80EE0E
:1047F000201ABCEEC10A10EE100A70BD01EE901A2C
:10480000DFED092AD8E7002070BD000010440258EF
:104810000090D00340787D010000003930440258F8
:104820000024744A0024744C20BCBE4BF0B50D46E5
:104830001F49204C002887B016464FF000004FF06B
:1048400002020F684FF0030319D047F004070F600E
:10485000096801F00401059111020091CDE90120E0
:10486000CDE9033014486946FEF74EFA206845EA60
:10487000C61120F07E400843206007B0F0BD47F02D
:1048800001070F60096801F0010105914FF4807183
:104890000091CDE90120CDE9033008486946FEF7D3
:1048A00033FA2068354320F0FE702843E4E7000027
:1048B000E044025810440258000802580000025810
:1048C0002DE9F05F04007DD0FF4F2078FE4D1837B2
:1048D000DFF8F493103DC00748D0D9F800003968DC
:1048E00000F03800102815D0182803D101F003007B
:1048F00002280FD06068B0F5803F12D010B1B0F53B
:10490000A02F18D0286820F480302860286820F470
:10491000802009E02868800328D560680028D2D06C
:1049200024E0286840F480302860606888B1FEF791
:1049300015FB064609E0286840F480202860F0E76F
:10494000FEF70CFB801B64286FD828688003F7D51E
:104950000CE0FEF703FB064605E000BFFEF7FEFA9B
:10496000801B6428F0D828688003F7D4207841F2AF
:104970000308D54E0C3E800769D5D9F80000396888
:1049800010F038000ED0182801D188070AD0E0684E
:1049900090B3296821F0190101432960FEF7DEFA7E
:1049A000824631E02868400702D5E06800288AD0B6
:1049B000E168286820F0190008432860FEF7CEFA65
:1049C000824607E0DFE000BFFEF7C8FAA0EB0A006E
:1049D0000228B9D828684007F6D500BFFEF7B8FA14
:1049E00040451BD82069402812D0316821F47C3121
:1049F00041EA003030602AE018E000BFFEF7AEFA6E
:104A0000A0EB0A0002289FD828684007F6D5E5E702
:104A1000306820F47C3040F40030EBE7207C3168D3
:104A200021F0FE4141EA0060E4E70DE1286820F052
:104A300001002860FEF792FA824605E0FEF78EFA42
:104A4000A0EB0A0002288DD828684007F6D4207809
:104A5000C0065DD5D9F80000DFF86CB2396800F007
:104A60003800ABF1040B082810D0182803D101F04E
:104A7000030001280AD0E0690028286838D040F0F7
:104A800080002860FEF76AFA824623E02868C005A5
:104A900023D5E069802876D11FE0206A202821D024
:104AA000316821F0F84141EA8060306030E000BFB9
:104AB00094F82010DBF8002022F07C5242EA0161D9
:104AC000CBF8001024E000BFFEF748FAA0EB0A0084
:104AD000022898D82868C005F6D5FEF739FA40456F
:104AE000E6D8DAE7306820F0F84040F08040DCE7B4
:104AF00020F080002860FEF731FA064605E000BF8E
:104B0000FEF72CFA801B02289DD82868C005F7D430
:104B10002078000729D56C486169643000298046F7
:104B2000016811D041F001010160FEF717FA064655
:104B300005E000BFFEF712FA801B0228C9D8D8F89A
:104B400000008007F6D510E021F001010160FEF7BA
:104B500005FA064605E000BFFEF700FA801B0228B2
:104B600072D8D8F800008007F6D42078800623D5C4
:104B7000A0690028286810D040F480502860FEF713
:104B8000EDF9064605E02CE1FEF7E8F9801B022866
:104B90005AD828688004F7D50EE020F480502860A9
:104BA000FEF7DCF9064604E0FEF7D8F9801B022880
:104BB0004AD828688004F7D4207840074FD5DFF81A
:104BC0000C81D8F8001041F48071C8F80010FEF78D
:104BD000C5F9064605E000BFFEF7C0F9801B642852
:104BE00032D8D8F80000C005F6D5374EA068603638
:104BF00001280AD008B1052813D0306820F0010040
:104C00003060306820F0040002E0306840F00100BD
:104C10003060A06841F2883A90B1FEF79FF9804673
:104C20000AE0306840F004003060EEE7FEF796F9E5
:104C3000A0EB0801514507D830688007F6D50EE093
:104C4000FEF78CF9804607E084E000BFFEF786F9A6
:104C5000A0EB080151457DD830688007F6D4606A22
:104C6000B0B3DFF86480D9F8001008F12008C1F370
:104C7000C20103296FD00228286820F080702860C4
:104C800003D0FEF76BF9044680E0FEF767F90646AD
:104C900005E000BFFEF762F9801B022873D8286880
:104CA0008001F7D4E26A40F2F331386854F8283FC3
:104CB000884340EA021018433860217B4FF4FE0C11
:104CC00022894FF0FE4704E0104402580048025881
:104CD00089E0208A4902521E267DA1F5007189B221
:104CE000401EC2F308021143761E0CEA0040014345
:104CF0003E4807EA066211433C4AC8F800100832F1
:104D0000016821F00101016011684FF6F876236A0D
:104D1000B14341EAC30111600168A26921F00C01AD
:104D2000114301600168E26921F002011143016051
:104D3000016841F480310160016841F40031016093
:104D4000016841F480210160016841F001010160C6
:104D5000286801E017E01DE040F080702860FEF751
:104D6000FDF8044605E000BFFEF7F8F8001B022836
:104D700009D828688001F7D535E000BFFEF7EEF8C6
:104D8000001B022802D90320BDE8F09F286880019B
:104D9000F4D428E039680128D8F8000021D0A26AAC
:104DA00001F0030393421CD1E26AC1F305118A4268
:104DB00017D1216BC0F30802491E8A4211D1616BE1
:104DC000C0F34622491E91420BD1A16BC0F30642AB
:104DD000491E914205D1E16BC0F30660491E814234
:104DE00001D00120D0E70020CEE700002C4402587B
:104DF0002DE9F047040029D0504A4FF000092068FF
:104E00004F4B504D9042C4F8289006D0984204D0A1
:104E1000A84202D0E1680F2918D8E1684FF0010AD2
:104E2000E76B0831C9080AEB57167143904205D069
:104E3000984203D0A84201D0082907D8904203D055
:104E4000984201D0A84204D1102902D90120BDE81E
:104E5000F08794F8810020B9204684F8809000F013
:104E600073F8022084F881002068016821F00101B4
:104E700001602168A0698A68B0F1806F02F4F810BF
:104E800010D16268B2F5800F01D01AB10AE0A26BAE
:104E900022B107E0A26BB2F1805F03D10A6842F44D
:104EA00080520A60A66AE169E26B25683143E368D3
:104EB000024311431943A960D4E90D02D4E90571F5
:104EC000636A25691843D4F820C00A432668104352
:104ED0002843A56D3843D4E90182D4E9123140EA70
:104EE0000C0040EA08000843104318432843F060D0
:104EF000606868B92068816821F4C05141F400619C
:104F000081602068816821F4C06141F48061816022
:104F10002068016D21F0010101656068400206D53D
:104F20002068626DC16821F000411143C160C4F87E
:104F3000849084F881A0002089E7000000300140BF
:104F400000380040003C004010B5B6B004461421C3
:104F50002FA8FBF707FABC216846FBF703FA1849AC
:104F60002068884229D14014009000246846189493
:104F7000FEF7E2FD08B1FCF7A4F91248016841F41C
:104F800000510160006800F4005034900D48103862
:104F9000016841F010010160006805224FF4A04152
:104FA000319400F0100034900220CDE92F10CDE9AB
:104FB000320205482FA9FDF7A7FE36B010BD00004C
:104FC00000340140F0440258001002582DE9FF5F00
:104FD000044616460F461D4600214FF0040BD4E947
:104FE0000002009130300290B2F5800F01D1A0682C
:104FF00088B194F88000012819D04FF0010984F895
:105000008090FDF7ABFF94F88110824600200129C3
:105010000FD0022126E084F881B03A46114620469E
:105020000093334600F016FA04B0BDE8F09F02206A
:10503000FAE7B7B1AEB1A26880466766A4F86860C7
:1050400084F881B0C4F88400A4F86A60E065A4F82C
:105050006000A4F86200B2F5C02F2067606705D039
:1050600009E0012184F880000846DDE72068016836
:1050700021F400610160206841686FF30F01314342
:1050800041602068016841F0010101606068B0F58D
:10509000800F04D12068016841F400710160E0686C
:1050A0000F282ED948F20806B4F86A00002859D013
:1050B0002068416931420BD0006B616E0860606E00
:1050C000001D6066B4F86A00401EA4F86A00EBE7B1
:1050D000FDF744FFA0EB0A00A84202D3681CE3D00E
:1050E00001E0002DE0D1204601F052FFD4F88420E9
:1050F00084F8808042F48071C4F8841084F8819030
:1051000088E007282AD868E02068416911F4604FD8
:1051100019D04169090409D5006B616E0860606EA1
:10512000001D6066B4F86A00801E09E002980088DD
:10513000616E0880606E801C6066B4F86A00401E74
:10514000A4F86A000AE0FDF709FFA0EB0A00A842F4
:1051500002D3681C02D0C6E7002DC4D0B4F86A00A0
:105160000028D1D13DE02068416911F4604F2AD078
:105170004169090409D5006B616E0860606E001D0D
:105180006066B4F86A00001F1AE0416901F4C0418A
:10519000B1F5005F0AD902980088616E0880606EE0
:1051A000801C6066B4F86A00801E09E090F8300048
:1051B000616E0870606E401C6066B4F86A00401E44
:1051C000A4F86A0009E0FDF7C9FEA0EB0A00A842B6
:1051D00002D3681C01D010E07DB1B4F86A00002849
:1051E000C1D1204601F0D4FE84F88190D4F8841017
:1051F00084F8808081B1012016E7204601F0C8FEC6
:10520000D4F8842084F8808042F48070C4F884004C
:1052100084F88190032007E7009805E72DE9FC5FFB
:105220000446006817468A4600211D4694F88020EF
:1052300000F1200B0191012A0DD04FF0010884F8F4
:105240008080FDF78BFE814694F8810000260128BE
:1052500004D002201EE00220BDE8FC9FBAF1000F3E
:1052600017D0B7B1A1680320C4F85CA0A4F860709F
:1052700084F88100C4F88460A4F862706666A4F8BB
:105280006860A4F86A60B1F5C02F6667266704D02D
:1052900008E0012084F88060DEE72068016841F4BE
:1052A00000610160206841686FF30F01394341607C
:1052B0002068016841F0010101606068B0F5800F6D
:1052C00004D12068016841F400710160E0680F2892
:1052D0001BD81FE02068416989070BD5E16D09687B
:1052E0000162E06D001DE065B4F86200401EA4F8A4
:1052F00062000AE0FDF732FEA0EB0900A84202D3EB
:10530000681C02D095E0002D30D0B4F8620000286F
:10531000E0D174E007282BD86DE020684169890747
:105320001CD5B4F8621001290BD9E16B49B1E16DCC
:1053300009680162E06D001DE065B4F86200801E3E
:1053400009E0E06D0188ABF80010E06D801CE065BD
:10535000B4F86200401EA4F8620009E0FDF7FEFD0B
:10536000A0EB0900A84202D3681C01D061E0BDB3E4
:10537000B4F862000028D0D141E020684169890773
:105380002FD5B4F8621003290CD9E16B402909D953
:10539000E16D09680162E06D001DE065B4F862002E
:1053A000001F1AE0B4F8621001290CD9E16B51B169
:1053B000E06D0188ABF80010E06D801CE065B4F88A
:1053C0006200801E09E0E16D097880F82010E06D30
:1053D000401CE065B4F86200401EA4F862000AE0D8
:1053E00027E0FDF7BBFDA0EB0900A84202D3681C33
:1053F00001D01EE0EDB1B4F862000028BDD100225A
:105400004B4608212046009501F020FE28B1D4F833
:10541000840040F02000C4F88400204601F0B8FD6C
:1054200084F88180D4F8840084F8806080B1012001
:1054300012E7204601F0ACFDD4F8841084F88060B7
:1054400041F48071C4F8841084F88180032003E75C
:10545000019801E72DE9FF4F83B090F880100446D2
:10546000006801294FF00001109F1D46019100F1D5
:10547000200100F1300093460291009014D04FF0CB
:10548000010A84F880A0FDF769FD804694F8810048
:105490006368002101282E464FF480020CD093420D
:1054A00008D1A36833B903E0022007B0BDE8F08F4C
:1054B000042801D0022037E0049898B3BBF1000F14
:1054C00031D07DB394F88100042802D0052084F8FF
:1054D000810089460846C4F88410C4F864B0A4F872
:1054E0006A50A4F868500499E165A4F86250A4F8E1
:1054F000605020676067206841686FF30F0129439F
:1055000041602068016841F00101016060689042DB
:1055100004D12068016841F400710160E0680F283F
:1055200036D839E0FFE7012084F88010BDE7206815
:10553000416989070DD565B1E16D09680162E06DCA
:10554000001DE065B4F86200401EA4F86200B4F8E3
:10555000625048F208022068416911420DD066B1DC
:10556000006B616E0860606E001D6066B4F86A00D2
:10557000401EA4F86A00B4F86A60FDF7EFFCA0EBE7
:105580000800B84202D3781C02D0E4E0002FFCD01F
:1055900055EA0600CBD1C4E007284CD8BEE020680D
:1055A000416989071CD5DDB1012D0BD9E16B49B1EA
:1055B000E16D09680162E06D001DE065B4F862000C
:1055C000801E09E0E06D018802980180E06D801C7A
:1055D000E065B4F86200401EA4F86200B4F86250BE
:1055E0002068416911F4604F1BD0D6B141690904AC
:1055F00009D5006B616E0860606E001D6066B4F8CE
:105600006A00801E09E000980088616E0880606E64
:10561000801C6066B4F86A00401EA4F86A00B4F802
:105620006A60FDF79BFCA0EB0800B84202D3781C2F
:1056300001D090E0F7B355EA0600B0D171E02068E0
:10564000416989072CD55DB3032D0CD9E16B402945
:105650000BD9E16D09680162E06D001DE065B4F8E9
:105660006200001F18E0012D0CD9E16B51B1E06D13
:10567000018802980180E06D801CE065B4F862004A
:10568000801E09E0E16D097880F82010E06D401C73
:10569000E065B4F86200401EA4F86200B4F86250FD
:1056A0002068416911F4604F2ED06EB3416909043E
:1056B0000BD500E04FE0006B616E0860606E001D6E
:1056C0006066B4F86A00001F1AE0416901F4C04145
:1056D000B1F5005F0AD900980088616E0880606E9D
:1056E000801C6066B4F86A00801E09E090F8300003
:1056F000616E0870606E401C6066B4F86A00401EFF
:10570000A4F86A00B4F86A60FDF728FCA0EB080072
:10571000B84202D3781C01D01DE0E7B155EA06007B
:105720008DD10022434608212046009701F08EFCCF
:1057300028B1D4F8840040F02000C4F8840020464A
:1057400001F026FC84F881A0D4F8841084F88090BD
:1057500081B10120A9E6204601F01AFCD4F884208A
:1057600084F8809042F48071C4F8841084F881A099
:1057700003209AE6019898E6401EB0F1807F10B5AC
:1057800001D3012010BD4FF0E02460610F216017AC
:1057900003F0E3F80020A0610721216110BD7047EC
:1057A000704770472DE9F04390F83C20012A42D021
:1057B000012280F83C2051F80C4BDFF880804FF03C
:1057C000000991E8680051E9022723F44073B1F819
:1057D0000CC03B43CF6923F480631343026823F476
:1057E0000063234323F4805343EA050323F4005367
:1057F00043EA060323F4804343EA07030C3923F406
:105800007023424543EA0C4302D00D4CA2420CD116
:105810008D8C23F47006D1E9073446EA055121F056
:105820008071194321F000732343536480F83C9046
:105830000020BDE8F0830220FBE7000000000140EB
:1058400000040140F0B590F83C20012A3BD01F4EE7
:10585000012480F83C40022280F83D2002681C4D63
:105860005368B242D2F808C001D0AA4203D14F68AF
:1058700023F470033B430F6823F070031F4357600A
:105880000268B24213D0B2F1804F10D0114B9A424D
:105890000DD0114B9A420AD0104B9A4207D0AA421F
:1058A00005D00F4B9A4202D00E4B9A4204D1896820
:1058B0002CF0800319439160002180F83D4080F86E
:1058C0003C100846F0BD0220F0BD00000000014081
:1058D000000401400004004000080040000C0040AB
:1058E000001800400040014010B504464FF002028D
:1058F00049B104290ED0082913D094F84700012893
:1059000016D0012010BD94F844000128F9D184F884
:1059100044200FE094F845000128F2D184F8452096
:1059200008E094F846000128EBD184F8462001E015
:1059300084F847200422206802F03CFB20681549C7
:10594000426C42F4004242642068884214D0B0F1B4
:10595000804F11D0104988420ED0104988420BD098
:105960000F49884208D00F49884205D00E49884225
:1059700002D00E49884207D181680D4A114006299C
:1059800006D0B1F5803F03D0016841F0010101600C
:10599000002010BD0000014000040040000800404D
:1059A000000C00400004014000180040004001408D
:1059B0000700010010B5040003D094F83D0010B1B9
:1059C00007E0012010BD002084F83C00204600F0D4
:1059D00023F8022084F83D002068211D02F088FA97
:1059E000012084F8480084F83E0084F83F0084F8E1
:1059F000400084F8410084F8420084F8430084F8B1
:105A0000440084F8450084F8460084F8470084F890
:105A10003D00002010BD000008B500680B49884219
:105A200012D10B48016841F4003101600068002286
:105A3000114600F4003000907520FDF7CBFEBDE864
:105A400008407520FDF7B8BE08BD000000440140C5
:105A5000F0440258704770B504460068002501699B
:105A6000C943890715D4C168C943890711D4EA1EFF
:105A7000026101212177206880698007204602D0D9
:105A8000FFF7E8FF04E000F0D1F8204600F0A6F9A7
:105A9000257720680169C943490717D4C168C943FC
:105AA000490713D402216FF00402026121772068B4
:105AB000806910F4407F204602D0FFF7CBFF04E05E
:105AC00000F0B4F8204600F089F9257720680169D4
:105AD000C943090716D4C168C943090712D4042170
