:020000040800F2
:100000005008002439030008CB370008FD350008EC
:10001000C93700082F050008194700080000000034
:10002000000000000000000000000000993C0008F3
:100030003105000800000000CD3700089B3C000897
:100040005303000853030008530300085303000838
:100050005303000853030008530300085303000828
:100060005303000853030008530300085303000818
:100070005303000853030008530300085303000808
:1000800053030008530300085303000853030008F8
:1000900053030008530300085303000853030008E8
:1000A00053030008530300085303000853030008D8
:1000B00053030008530300085303000853030008C8
:1000C00053030008530300085303000853030008B8
:1000D00053030008530300085303000853030008A8
:1000E00053030008530300080000000053030008F6
:1000F0005303000853030008530300085303000888
:100100005303000853030008530300085303000877
:100110005303000853030008530300085303000867
:100120005303000853030008530300085303000857
:100130005303000853030008530300085303000847
:1001400000000000000000000000000000000000AF
:100150005303000853030008530300085303000827
:100160005303000853030008530300085303000817
:100170005303000853030008530300085303000807
:1001800053030008530300085303000853030008F7
:1001900053030008530300085303000853030008E7
:1001A00053030008530300085303000853030008D7
:1001B00053030008530300085303000853030008C7
:1001C00053030008530300085303000853030008B7
:1001D00053030008530300085303000853030008A7
:1001E0005303000853030008530300085303000897
:1001F0005303000853030008530300085303000887
:100200005303000853030008530300085303000876
:100210005303000853030008530300085303000866
:1002200053030008530300085303000800000000B4
:1002300053030008530300080000000053030008A4
:100240005303000853030008530300085303000836
:100250005303000853030008530300085303000826
:100260005303000853030008530300085303000816
:100270005303000853030008530300080000000064
:100280005303000853030008530300080000000054
:10029000000000005303000800F002F800F03CF8F2
:1002A0000AA090E8000C82448344AAF10107DA45D1
:1002B00001D100F031F8AFF2090EBAE80F0013F0E7
:1002C000010F18BFFB1A43F0010318474445000013
:1002D00064450000103A24BF78C878C1FAD85207A4
:1002E00024BF30C830C144BF04680C6070470000B0
:1002F0000023002400250026103A28BF78C1FBD82F
:10030000520728BF30C148BF0B6070471FB504F0CB
:1003100065FA1FBD10B510BD00F0CFF81146FFF70C
:10032000F5FF04F00DFA00F0EDF803B4FFF7F2FF6B
:1003300003BC00F0F5F80000094880470948004771
:10034000FEE7FEE7FEE7FEE7FEE7FEE7FEE7FEE785
:10035000FEE7FEE704480549054A064B70470000E2
:10036000753D00089902000850020024500800243E
:10037000500400245004002453EA020C00F0698069
:100380002DE9F04B4FF00006002B1FBFB3FA83F5A9
:1003900003FA05F424FA05F65E4012BF1643B2FADA
:1003A00082F502FA05F4C5F120051EBF22FA05FC0C
:1003B00044EA0C04203556EA044C4FEA144418BFB2
:1003C000641C4FF000084FF00009904271EB030CE1
:1003D00039D3002919BFB1FA81F701FA07F6B0FA4B
:1003E00080F700FA07F6C7F120071EBF20FA07FCC6
:1003F00046EA0C062037B6FBF4FCA7EB0507103FD6
:1004000007F01F0BCBF120060CFA0BFB2CFA06F6BB
:1004100044BFB3460026202FA4BF5E464FF0000B1A
:100420005BEA060C08BF4FF0010B19EB0B09ABFBA5
:10043000027C48EB0608C01B06FB02CC0BFB03CC7E
:1004400071EB0C01C1E70B46024641464846BDE848
:10045000F08B13B54FF000004FF00001AFF30080B8
:10046000BDE81C4070474FF0000200B513469446AB
:100470009646203922BFA0E80C50A0E80C50B1F1FC
:100480002001BFF4F7AF090728BFA0E80C5048BF10
:100490000CC05DF804EB890028BF40F8042B08BFAE
:1004A000704748BF20F8022B11F0804F18BF00F8AA
:1004B000012B7047704770477047754600F02CF865
:1004C000AE4605006946534620F00700854618B041
:1004D00020B5FFF73FFFBDE820404FF000064FF08A
:1004E00000074FF000084FF0000B21F00701AC4669
:1004F000ACE8C009ACE8C009ACE8C009ACE8C00988
:100500008D46704710B50446AFF300802046BDE825
:100510001040FFF70ABF000000487047EC010024BC
:1005200001491820ABBEFEE7260002007047FEE737
:10053000704772B6FEE700002DE9FC5FDFF8C0925D
:100540000027DFF8C0820D46DFF8BCA24845DFF87F
:10055000BCB204461FD054451DD05C451BD0AC48EE
:10056000844218D0AB48844215D0AB48844212D0A4
:10057000AA4884420FD0AA4884420CD0A948844299
:1005800009D0A948844206D0A848844203D0BB21A0
:10059000A7A004F0D3F828680104090C01D0000CCE
:1005A00003D0BC21A2A004F0C9F86868F8B1012802
:1005B0001DD011281BD0022819D0122817D0AB4902
:1005C000884214D0AA49884211D0AA4988420ED044
:1005D000A94988420BD0A949884208D0A849884235
:1005E00005D0032803D0BD2191A004F0A7F8A86886
:1005F000002807D00128FCD00228FAD0BE218CA008
:1006000004F09CF8F4E00120B840064000907DD052
:100610006868012805D0022803D0112801D01228CB
:100620001DD1E86848B1012807D0022805D0032869
:1006300003D0CE217EA004F081F8A16803237A00C4
:10064000E8689340904099430843A0606068297926
:10065000009AC1F300119043B94001436160E16821
:1006600003207B000193AA689840814300909A4040
:100670000A43E2606868022801D0122839D14C454B
:100680001FD054451DD05C451BD06148844218D012
:100690006048844215D06048844212D05F4884424A
:1006A0000FD05F4884420CD05E48844209D05E4837
:1006B000844206D05D48844203D0E6215CA004F069
:1006C0003DF828690F2803D9E72159A004F036F82E
:1006D000F80829690F2304EB80024FEA477C106A6F
:1006E0004FEADC6C03FA0CF3984301FA0CF1014376
:1006F000116228792168009A00F003009143019A61
:100700009040084320606868C00000E06FE06ED54C
:100710005C48016841F002010160006827F00302B3
:1007200002F1B04200F002000090B8070F21030F61
:10073000D2F8080499404C4520EA010001D100217B
:100740002BE0544501D1012127E05C4501D1022174
:1007500023E02F498C4201D103211EE02D498C4218
:1007600001D1042119E02C498C4201D1052114E06A
:100770002A498C4201D106210FE029498C4201D13E
:1007800007210AE027498C4201D1082105E02649CA
:100790008C4201D1092100E00A2199400143C2F8AD
:1007A0000814D8F80000696820EA0600C90300D5DB
:1007B0003043C8F80000D8F80400696820EA060051
:1007C000890300D53043C8F804004FF0B0406A6890
:1007D0000168D20221EA060100D5314301606A684E
:1007E0004168920221EA060100D5314341607F1C35
:1007F0002E6836FA07F07FF406AFBDE8FC9F0000D4
:1008000000000258800000580004025800080258F6
:10081000000C025800100258001402580018025828
:10082000001C0258002002580024025800280258D8
:100830002E2E2F447269766572732F53544D3332C6
:10084000483778785F48414C5F4472697665722F0B
:100850005372632F73746D3332683778785F6861D1
:100860006C5F6770696F2E6300000000000011115B
:1008700000002111000031110000121100002211AE
:1008800000003211F444025801480068000C70471F
:100890000010005C014880687047000000000024E0
:1008A00070B5040011D0206850B1102808D020285D
:1008B00006D0302804D018A040F24D1103F03EFFBE
:1008C00094F83500002510B106E0012070BD2046E7
:1008D00084F8345000F040F80121022084F83500FB
:1008E00025621C48E5616562A56384F8375084F889
:1008F0002D1084F83650026854F8183B22F030026C
:100900001A430260026822F4005202602575617782
:100910006562002070BD00002E2E2F44726976653E
:1009200072732F53544D3332483778785F48414CB7
:100930005F4472697665722F5372632F73746D33DF
:1009400032683778785F68616C5F686173682E63BE
:100950000000000000140248054808B5016841F095
:1009600020010160006800F02000009008BD000038
:10097000DC44025870B504003BD02B492068884203
:1009800003D0B42129A003F0D9FE606878B1012812
:100990000DD002280BD0032809D0042807D0052841
:1009A00005D0062803D0B52120A003F0C7FEA0681B
:1009B0004FF48055A84203D3B6211CA003F0BEFE1D
:1009C000E068A84203D3B72118A003F0B7FE22685D
:1009D0004CF6CC4145F25550116021680860D4E9CD
:1009E000000141602168A0688860FFF753FF054659
:1009F00009E0012070BD00BFFFF74CFF401B30280D
:100A000001D9032070BD2068C0680028F4D1206897
:100A1000E16802698A4201D0016102E04AF6AA2136
:100A20000160002070BD0000004800582E2E2F44A9
:100A30007269766572732F53544D33324837787824
:100A40005F48414C5F4472697665722F5372632F21
:100A500073746D3332683778785F68616C5F69777B
:100A600064672E6300000000024881680278114428
:100A70008160704700000024032010B500F0A6F844
:100A800001F08AFC0F4A104914681368C4F303226A
:100A900003F00F038A5CC95C02F01F0201F01F0122
:100AA000D0400A4A20FA01F111600949086000208B
:100AB00000F010F808B1012010BD00F02BF8002064
:100AC00010BD000018440258FE4700081000002422
:100AD0000C00002470B50D4D04462878A0B14FF4E9
:100AE0007A71B1FBF0F00A490968B1FBF0F002F04D
:100AF0001DFB48B9102C07D200222146501E00F0E1
:100B000017F800206C6070BD012070BD000000244B
:100B10000C000024054808B5016841F0020101609D
:100B2000006800F00200009008BD0000F444025884
:100B300070B5102A14460D46064603D3AA2113A009
:100B400003F0FCFD102D03D3AB2110A003F0F6FD44
:100B50001D480068C0F30223C3F10702042A00D92C
:100B60000422181D072801D2002300E0DB1E01210A
:100B700001FA02F09940401E2840491E9840214049
:100B800001433046BDE8704003F0C7BD2E2E2F4410
:100B90007269766572732F53544D333248377878C3
:100BA0005F48414C5F4472697665722F5372632FC0
:100BB00073746D3332683778785F68616C5F636F28
:100BC000727465782E6300000CED00E070B50728A4
:100BD00004460BD0062C09D0052C07D0042C05D0D8
:100BE000032C03D0922108A003F0A8FD154904F0BE
:100BF00007024FF6FF050868134B284040EA022021
:100C00001843086070BD00002E2E2F44726976656F
:100C100072732F53544D3332483778785F48414CC4
:100C20005F4472697665722F5372632F73746D33EC
:100C300032683778785F68616C5F636F727465786B
:100C40002E6300000CED00E00000FA0570B50228EC
:100C5000044606D0012C04D015A040F23F1103F049
:100C60006DFD22480168C943490705D5006800F0B9
:100C70000700A04213D118E0016821F007012143C9
:100C80000160FFF707FE194D4FF47A760446083DE0
:100C900007E000BFFFF7FEFD001BB04201D90120B5
:100CA00070BD2868C0438004F4D4002070BD0000EB
:100CB0002E2E2F447269766572732F53544D333242
:100CC000483778785F48414C5F4472697665722F87
:100CD0005372632F73746D3332683778785F68614D
:100CE0006C5F7077725F65782E6300000C48025865
:100CF000F8B50446FFF7CEFD002C054668D05849EC
:100D00002068884204D057A04FF49F7103F016FD6D
:100D10006068FF2804D953A040F23F1103F00EFD94
:100D2000A068401E1F2804D94FF4A0714DA003F005
:100D300005FDE06830B1102804D04AA040F241110E
:100D400003F0FCFC20691F2804D946A04FF4A171D0
:100D500003F0F4FC6069C8B1B0F5807F16D0B0F53F
:100D6000007F13D0B0F5407F10D0B0F5806F0DD06C
:100D7000B0F5A06F0AD0B0F5C06F07D0B0F5E06F46
:100D800004D038A040F2431103F0D8FCA06930B180
:100D9000012804D04FF4A27132A003F0CFFC206AE6
:100DA000402811D038B12FA040F2451103F0C6FC05
:100DB000206A402808D0E06930B1802804D029A0FA
:100DC00040F2491103F0BAFC94F8410010B107E079
:100DD0000120F8BD204600F067F841F28830A06499
:100DE00020686FF0FF03A268016803EB022221F480
:100DF000706111430160A06C002220212B460090FD
:100E0000204602F0E4FC0028E3D12268D4E907354B
:100E10002679E168176845EA0665DFF884C019435A
:100E2000204B29430025012607EA0C0739431160AE
:100E30002268D4E90517B4F810C0D2F804E03943A9
:100E40000EEA030E4EEA0C431943516021680A680A
:100E500042F001020A60656484F84160F8BD000058
:100E6000005000522E2E2F447269766572732F53F4
:100E7000544D3332483778785F48414C5F4472694B
:100E80007665722F5372632F73746D3332683778BF
:100E9000785F68616C5F717370692E630000000099
:100EA0002FFFFF00FEF8E0FF70B586B00446142166
:100EB0006846FFF7D8FA2E492068884256D12D4857
:100EC000016841F480410160006800F480400590B1
:100ED00028480C30016841F010010160016801F000
:100EE00010010591016841F001010160016801F004
:100EF00001010591016841F002010160016801F002
:100F000002010591016841F00801016000680024B8
:100F10000926694600F0080005900420009002258B
:100F20001548CDE90154CDE90346FFF705FB0095CF
:100F30006946CDE901541148CDE90346FFF7FCFAB3
:100F400040F204400090CDE901540D486946CDE9D6
:100F50000346FFF7F1FA4FF4C0500090CDE9015479
:100F600008486946CDE90346FFF7E6FA06B070BDCA
:100F700000500052D4440258001002580000025899
:100F800000040258000C025810B501F0BFF90549E1
:100F90000968054AC1F30211515C01F01F01C84004
:100FA00010BD000020440258FE470008494930B5F2
:100FB000484C0B1D0A68143409681D68246802F047
:100FC0000303C5F30012C1F30531C4F3CC040029B7
:100FD00014FB02F200EE102AF8EE400A75D03F4AE8
:100FE0009FED3D1AB7EE000A6BB1DFED3D1A012B04
:100FF00001D0022B64D002EE101A1168F8EE422ADA
:1010000081EEA22A21E0334C283C23689B0612D5AE
:10101000344B246801EE901A1168C4F3C104F8EE51
:10102000612AE34001EE903AC1F30801F8EE611A3B
:1010300081EEA22A0BE001EE901ADFED2B2A00BF11
:10104000F8EE611A116882EEA12AC1F3080101EEDF
:10105000901A1168F8EE611A40EE811A71EE800A5A
:1010600062EE200AC1F3462101EE101AB8EE411AD1
:1010700031EE001AC0EE811ABCEEE11A80ED001AC2
:101080001168C1F3064101EE101AB8EE411A31EEB3
:10109000001AC0EE811ABCEEE11A80ED011A116847
:1010A000C1F3066101EE101AB8EE411A31EE000AE2
:1010B00080EE801ABCEEC10A80ED020A30BD04E069
:1010C00001EE901ADFED092ABAE7002101604160C4
:1010D0008160F3E728440258000000393844025880
:1010E0000024744A0090D0030024744C20BCBE4BF2
:1010F000494930B5484C0B1D0A681C3409681D6805
:10110000246802F00303C5F30022C1F30551C4F3C0
:10111000CC04002914FB02F200EE102AF8EE400A7B
:1011200075D03F4A9FED3D1AB7EE000A6BB1DFED77
:101130003D1A012B01D0022B64D002EE101A116867
:10114000F8EE422A81EEA22A21E0334C283C2368A3
:101150009B0612D5344B246801EE901A1168C4F333
:10116000C104F8EE612AE34001EE903AC1F30801B0
:10117000F8EE611A81EEA22A0BE001EE901ADFED83
:101180002B2A00BFF8EE611A116882EEA12AC1F382
:10119000080101EE901A1168F8EE611A40EE811A0A
:1011A00071EE800A62EE200AC1F3462101EE101AA8
:1011B000B8EE411A31EE001AC0EE811ABCEEE11A07
:1011C00080ED001A1168C1F3064101EE101AB8EE65
:1011D000411A31EE001AC0EE811ABCEEE11A80ED20
:1011E000011A1168C1F3066101EE101AB8EE411A36
:1011F00031EE000A80EE801ABCEEC10A80ED020AD0
:1012000030BD04E001EE901ADFED092ABAE70021B3
:10121000016041608160F3E7284402580000003912
:10122000404402580024744A0090D0030024744CB7
:1012300020BCBE4B2DE9FC5F044650F8241B002562
:1012400000902E460801FE4FDFF8F8931DD5606E22
:1012500050B1B0F5801F0CD0B0F5001F0ED0B0F526
:10126000401F1DD001250FE0386840F40030386081
:1012700016E00221201D02F0CFFA03E000980221BF
:1012800002F0C2FB05000BD02E462088C00523D5F6
:10129000606D05281ED2DFE800F00C11161B1B0044
:1012A000626ED9F8001021F440111143C9F8001002
:1012B000EBE7386840F40030386009E00021201D79
:1012C00002F0AAFA03E00098002102F09DFB054617
:1012D0006DB100E001252E462088800528D5A06D3F
:1012E00080281ED00CDC90B140280ED114E0626D35
:1012F000D9F8001021F007011143C9F80010EBE7FD
:10130000C02813D0B0F5807F10D001250FE03868D9
:1013100040F40030386009E00021201D02F07CFA22
:1013200003E00098002102F06FFB054695B12E46C0
:101330002088DFF81083400508F108082CD5D4F880
:10134000A400B0F5800F20D00DDCA0B1B0F5001FD7
:101350000FD115E0A26DD9F8001021F4E07111430E
:10136000C9F80010E4E7B0F5C00F13D0B0F5000FD6
:1013700010D001250FE0386840F40030386009E0F3
:101380000021201D02F048FA03E00098002102F03D
:101390003BFB054675B12E46208800052DD5D4F8B7
:1013A000A800B0F1007F21D00EDCA8B1B0F1807FA1
:1013B00010D116E0D4F8A420D8F8001021F4600170
:1013C0001143C8F80010E7E7B0F1407F13D0B0F147
:1013D000806F10D001250FE0386840F4003038608D
:1013E00009E00021201D02F017FA03E00098002117
:1013F00002F00AFB05466DB12E46206880011FD51C
:10140000A06CD8B110280FD0202812D0302815D0C9
:10141000012514E0D4F8A820D8F8001021F0E061EC
:101420001143C8F80010E8E7386840F4003038602D
:1014300004E00221201D02F0EFF905466DB12E46B1
:101440002088C0042BD5E06DB0F5005F20D00DDC06
:10145000A0B1B0F5805F0FD115E07A48A26C001FF3
:10146000016821F0300111430160E9E7B0F5405F08
:1014700013D0B0F5804F10D001250FE0386840F44C
:101480000030386009E00021201D02F0C5F903E0BA
:101490000098002102F0B8FA054685B12E46208852
:1014A000800429D5206EB0F5403F23D010DC08B36E
:1014B000B0F5803F14D0B0F5003F0FD115E0E26DDC
:1014C000D9F8001021F4E0411143C9F80010E6E713
:1014D000B0F5802F0ED0B0F5A02F0BD001250AE07B
:1014E0000121201D02F098F903E00098012102F08B
:1014F0008BFA05468DB12E46208840042AD5D4F8B3
:10150000AC00B0F1405F23D010DC08B3B0F1805FD5
:1015100014D0B0F1005F0FD115E0226ED9F80010A1
:1015200021F4E0211143C9F80010E5E7B0F1804F44
:101530000ED0B0F1A04F0BD001250AE00121201DF3
:1015400002F06AF903E00098012102F05DFA054615
:101550006DB12E46208800041FD5E06ED8B1B0F1E1
:10156000805F0ED0B0F1005F10D0012514E0D4F8F8
:10157000AC20D8F8001021F0E0411143C8F8001069
:10158000E8E7386840F40030386004E00121201DAD
:1015900002F042F905466DB12E462068C0011ED505
:1015A000606CD0B101280ED0022811D0032814D0CD
:1015B000012513E0E26ED9F8001021F040511143EB
:1015C000C9F80010E9E7386840F40030386004E0FA
:1015D0000221201D02F020F90546ADB32E462068F9
:1015E000DFF85CB04002ABF11C0B7DD5D4F8B00045
:1015F000B0F5807F79D0B0F5007F76D0B0F50C5F84
:1016000073D0B0F54C5F70D0B0F5864F6DD0B0F5AB
:10161000A64F6AD0B0F5C64F67D0B0F5E64F64D09C
:10162000B0F5034F61D0B0F5134F5ED0B0F5234F46
:101630005BD0B0F5334F58D0B0F5434F55D004E0F0
:101640002C44025850440258A9E0B0F5534F4CD0F6
:10165000B0F5634F49D0B0F5734F46D0F749884293
:1016600043D0F749884240D0F64988423DD0F649F8
:1016700088423AD0F549884237D0F549884234D07B
:10168000F449884231D0F44988427FD0F3498842F6
:101690007CD0F349884279D0F249884276D0F24929
:1016A000884273D0F149884270D0F14988426DD0A8
:1016B000F04988426AD0F049884267D0EF498842B1
:1016C00064D0EF49884261D0EE4988425ED0EE494D
:1016D00088425BD0ED49884258D0ED49884255D0C8
:1016E000EC49884252D001E0A0E04FE0EA4988424C
:1016F0004CD0EA49884249D0E949884246D0E94974
:10170000884243D0E849884240D0E84988423DD0E9
:10171000E74988423AD0E749884237D0E6498842CB
:1017200034D0E649884231D0E54988422ED0E54997
:1017300088422BD0E449884228D0E449884225D009
:10174000E349884222D0E34988421FD0E2498842D7
:101750001CD0E249884219D0E149884216D0E149BB
:10176000884213D0E049884210D0E04988420DD029
:10177000DF4988420AD0DF49884207D0DE498842E3
:1017800004D0DEA040F27F3102F0D8FFEA480168C1
:1017900041F480710160FFF77DF882460EE0E74872
:1017A000626C016821F003011143016017E700BF7B
:1017B000FFF770F8A0EB0A00642835D8DE4800680F
:1017C000C005F5D58DBBDFF874A3B4F8B0100AF1ED
:1017D000240ADAF8000001F4407100F440708842F5
:1017E00011D0DAF80010DAF8002021F4407142F448
:1017F0008032CAF80020DAF8002022F48032CAF8D9
:101800000020CAF80010D4F8B000B0F5807F22D1D3
:10181000FFF740F801901AE0FFF73CF80199411AF0
:1018200041F28830814212D903252E462078DFF814
:101830000CA3C0070AF1080A3DD0A06F182838D0C1
:1018400026DC80B3082829D0102825D12CE0DAF82E
:1018500000008007E0D5D4F8B010C1F301200328C0
:1018600058460DD0016821F47C510160B4F8B020D5
:10187000DAF80010C2F30B021143CAF80010D5E7E2
:10188000AF4A036802EA111223F47C511143ECE7DA
:1018900020280ED028280CD001250BE00121201D86
:1018A00001F0BAFF04E004E00098012102F0ACF876
:1018B00005465DB12E46207880071ED5606F06284C
:1018C00019D2DFE800F0160C11161616A26FDAF81E
:1018D000001021F038011143CAF80010EBE7012194
:1018E000201D01F099FF03E00098012102F08CF81F
:1018F000054675B100E001252E46207840071FD52A
:10190000D4F89000062819D2DFE800F0160C111662
:101910001616626FDAF8001021F007011143CAF8B9
:101920000010EAE70121201D01F076FF03E0009896
:10193000012102F069F805469DB100E001252E461F
:10194000207880062BD5D4F88C00B0F1405F24D0ED
:1019500011DC10B3B0F1805F15D0B0F1005F10D191
:1019600016E0D4F89020D8F8001021F007011143B8
:10197000C8F80010E4E7B0F1804F0ED0B0F1A04FEE
:101980000BD001250AE00021201D01F045FF03E0F6
:101990000098022102F038F805468DB12E462078D5
:1019A00040062BD5D4F89800B0F5406F24D011DC58
:1019B00010B3B0F5806F15D0B0F5006F10D116E000
:1019C000D4F88C20DAF8001021F0E0411143CAF875
:1019D0000010E4E7B0F5805F0ED0B0F5A05F0BD04B
:1019E00001250AE00021201D01F016FF03E0009808
:1019F000022102F009F805468DB12E462078000636
:101A000018D5D4F89C00B0F5C04F12D013DC80B1CB
:101A1000B0F5005F10D0B0F5804F0ED19FE0D4F844
:101A20009820D8F8001021F4E0511143C8F80010B4
:101A3000E4E799E09AE085E08CE089E000030100AA
:101A400000130100002301000033010000430100E6
:101A500000530100006301000073010000830100D6
:101A60000093010000A3010000B3010000C30100C6
:101A700000D3010000E3010000F3010000030200B5
:101A800000130200002302000033020000430200A2
:101A90000053020000630200007302000083020092
:101AA0000093020000A3020000B3020000C3020082
:101AB00000D3020000E3020000F302000003030071
:101AC000001303000023030000330300004303005E
:101AD000005303000063030000730300008303004E
:101AE0000093030000A3030000B3030000C303003E
:101AF00000D3030000E3030000F303002E2E2F4465
:101B00007269766572732F53544D33324837787843
:101B10005F48414C5F4472697665722F5372632F40
:101B200073746D3332683778785F68616C5F7263A5
:101B3000635F65782E630000004802584C440258E9
:101B4000CFFFFF00B0F5004F0ED0B0F5204F0BD007
:101B500001250AE00021201D01F05EFE03E000984F
:101B6000022101F051FF0546DDB12E462078000725
:101B700030D5D4F88000B0F5805F1CD0B0F5005FA0
:101B80001FD0F0B1B0F5405F1BD040F20F51AFF263
:101B9000940002F0D3FDD4F88000B0F5805F0AD045
:101BA0000FE0D4F89C20D8F8001021F460411143D4
:101BB000C8F80010DAE70098022101F025FF00B113
:101BC0000126D4F88020DAF8001021F440511143A6
:101BD000CAF800102078C00625D5D4F89400B0F5D6
:101BE000807F11D0B0F5007F14D098B1B0F5405F80
:101BF00010D040F22251AFF2FC0002F09FFDD4F869
:101C00009400B0F5807F05D10098022101F0FCFE20
:101C100000B10126D4F89420D8F8001021F44071C6
:101C20001143C8F800102068000316D5D4F8A000AE
:101C300038B1B0F5803F09D0B0F5003F0BD0012599
:101C40000AE00021201D01F0E7FD03E000980221D9
:101C500001F0DAFE054685B12E462068400322D504
:101C6000D4F88400B0F5801F11D0B0F5001F13D058
:101C7000B0F5401F15D0012514E0D4F8A020D8F805
:101C8000001021F440311143C8F80010E5E738682E
:101C900040F40030386004E00098012101F0B4FE07
:101CA0000546ADB12E462068C00327D5E06C40B193
:101CB000B0F5803F05D04FF4B161AFF2C01002F033
:101CC0003DFDE06C70B1B0F5803F10D0012514E00F
:101CD000D4F88420DAF8001021F440111143CAF836
:101CE0000010E0E7386840F40030386004E002217A
:101CF000201D01F091FD0546CDB12E4620688000E3
:101D000005D50098022101F07FFE00B10126206870
:101D100080031AD5E06FB0B1B0F5807F0FD0B0F579
:101D2000007F10D0B0F5407F0DD001250CE04B486E
:101D3000E26C016821F4803111430160DEE738680C
:101D400040F400303860EDB32E462068C00212D552
:101D5000206F40B1B0F1004F05D040F2E751AFF233
:101D6000642002F0EBFC226FD9F8001021F0004152
:101D70001143C9F800102068C00014D5D4F8B4008D
:101D800040B1B0F5804F05D040F2F151AFF2942050
:101D900002F0D4FCD4F8B420DBF8001021F4804128
:101DA0001143CBF800102068800214D5A06E40B11A
:101DB000B0F1807F05D040F2FB51AFF2C02002F0BD
:101DC000BDFC00E03FE0A26ED9F8001021F0807168
:101DD0001143C9F800102068400018D5D4F8B800A5
:101DE00040B1B0F5004F05D040F21161AFF2F420E0
:101DF00002F0A4FCDBF8001021F40041CBF8001045
:101E0000DBF80010D4F8B8201143CBF8001020689C
:101E1000002814DA206D58B1B0F1805F08D0B0F11D
:101E2000005F05D040F21B61AFF2303002F086FC5B
:101E30000A48226D016821F04051114301605EB1F2
:101E40000120BDE8FC9FE26FDAF8001021F4407138
:101E50001143CAF8001078E70020F2E74C4402581A
:101E60002DE9F05F04000D467ED02068401E3E281C
:101E700004D9FFA040F27F3102F060FC15B3012DC0
:101E800020D0022D1ED0032D1CD0042D1AD0052DDC
:101E900018D0062D16D0072D14D0082D12D0092DDC
:101EA00010D00A2D0ED00B2D0CD00C2D0AD00D2DDC
:101EB00008D00E2D06D00F2D04D04FF46071ECA089
:101EC00002F03CFCDFF8E083D8F8000000F00F00DF
:101ED000A8420CD2D8F8001021F00F012943C8F80D
:101EE0000010D8F8000000F00F00A8423CD1207884
:101EF000EE4E400719D52069316801F07001884223
:101F000013D960B140280AD0502808D0602806D0E4
:101F1000702804D04FF46771D5A002F00FFC21693E
:101F2000306820F07000084330602078DF4F3F1D9C
:101F300000071BD56069396801F07001884215D926
:101F400060B140280AD0502808D0602806D07028F8
:101F500004D0C7A040F2AE3102F0F0FB61693868EE
:101F600020F07000084300E00DE138602078C006E2
:101F70001DD5A069396801F4E061884217D980B1A4
:101F8000B0F5806F0DD0B0F5A06F0AD0B0F5C06F7E
:101F900007D0B0F5E06F04D0B5A040F2BF3102F039
:101FA000CDFBA169386820F4E060084338602078F0
:101FB000DFF8F8A280060AF1080A1CD5E069DAF811
:101FC000001001F07001884215D960B140280AD094
:101FD000502808D0602806D0702804D0A4A040F271
:101FE000D13102F0ABFBE269DAF8001021F07001A8
:101FF0001143CAF800102078800721D5E0683168C5
:1020000001F00F0188421BD9A0B1082812D009287D
:1020100010D00A280ED00B280CD00C280AD00D287E
:1020200008D00E2806D00F2804D04FF4797190A064
:1020300002F084FBE168306820F00F000843306054
:102040002078C00769D0A068E0B1B0F5006F19D062
:10205000B0F5106F16D0B0F5206F13D0B0F5306F1B
:1020600010D0B0F5406F0DD0B0F5506F0AD0B0F57C
:10207000606F07D0B0F5706F04D04FF47D717CA015
:1020800002F05CFB6068012809D040B1022806D04C
:10209000032804D076A040F2F53102F04FFB8349CB
:1020A000A2683068183920F47060104330606068AE
:1020B000022816D0032817D00968012817D049072D
:1020C000002960DADFF8E4B1ABF1080BDBF800209F
:1020D00022F007020243CBF80020FEF7DBFB81462B
:1020E00013E009688903EBE709688901E8E7C90596
:1020F000E6E700BFFEF7CEFBA0EB090141F2883016
:10210000814202D90320BDE8F09F6168DBF800003E
:1021100000F03800B0EBC10FECD12078800721D55A
:10212000E068316801F00F0188421BD2A0B1082895
:1021300012D0092810D00A280ED00B280CD00C2859
:102140000AD00D2808D00E2806D00F2804D048A0A9
:1021500040F2364102F0F2FAE168306820F00F00F8
:1021600008433060D8F80010404601F00F01A94242
:102170000BD9016821F00F0129430160006800F0CC
:102180000F00A84201D00120BDE72078400719D5F3
:102190002069316801F07001884213D260B1402893
:1021A0000AD0502808D0602806D0702804D030A06B
:1021B00040F2574102F0C2FA2169306820F0700005
:1021C000084330602078000719D56069396801F04C
:1021D0007001884213D260B140280AD0502808D03C
:1021E000602806D0702804D021A040F2694102F096
:1021F000A5FA6169386820F07000084338602078DB
:10220000C0061DD5A069396801F4E061884217D283
:1022100080B1B0F5806F0DD0B0F5A06F0AD0B0F5E9
:10222000C06F07D0B0F5E06F04D011A040F27B4141
:1022300002F084FAA169386820F4E060084338604D
:10224000207880063DD5E0695546DAF8001001F0A7
:102250007001884235D258B340282CD050282AD05B
:10226000602828D0702826D001A040F28D4120E0BF
:102270002E2E2F447269766572732F53544D33326C
:10228000483778785F48414C5F4472697665722FB1
:102290005372632F73746D3332683778785F686177
:1022A0006C5F7263632E6300002000521844025872
:1022B00001E002F043FAE169286820F07000084369
:1022C000286000F069F80D4933683268C3F30323CE
:1022D00002F00F02CB5C895C03F01F0201F01F01CA
:1022E000D040074A20FA01F111600649086006480B
:1022F0000068BDE8F05FFEF7EDBB0000FE47000898
:10230000100000240C0000240400002430B500F06C
:1023100043F80B4A0B490C4B15681468C5F30322AC
:1023200004F00F048A5C095D02F01F0201F01F0136
:10233000D040064A20FA01F119601060084630BD0D
:1023400018440258FE470008100000240C00002426
:1023500000B5FFF7DBFF05490968054AC1F3021123
:10236000515C01F01F01C84000BD00001C44025830
:10237000FE47000800B5FFF7C9FF05490968054A8F
:10238000C1F30221515C01F01F01C84000BD0000F3
:102390001C440258FE470008454970B54548096885
:1023A000434B103B11F0380208D00111082A03D02A
:1023B000102A0BD0182A0BD0084670BD1968890660
:1023C000FBD51968C1F3C101C84070BD3A4870BD62
:1023D0003749374D18310C1D24350A6809682668BD
:1023E0002D6802F0030406F00102C1F30511C5F3E4
:1023F000CC0515FB02F200EE102AB8EE400AE9B354
:102400002F4ADFED2E0AB7EE001A6CB1DFED2D1A60
:10241000012C01D0022C43D002EE101A1068F8EE05
:10242000422A81EEA22A1EE01C68A40611D51B6870
:1024300001EE901A1168C3F3C103F8EE612AD84087
:1024400001EE900AC1F30800F8EE611A81EEA22AAB
:102450000BE001EE901ADFED1C2A00BFF8EE611AC6
:10246000106882EEA12AC0F3080001EE900AF8EE8F
:10247000611A40EE201A31EE810A00E015E022EEEA
:10248000000A1068C0F34620401C00EE900AF8EEE7
:10249000600A80EE201ABCEEC10A10EE100A70BD70
:1024A00001EE901ADFED092AD8E7002070BD000088
:1024B000104402580090D00340787D01000000399C
:1024C000304402580024744A0024744C20BCBE4B93
:1024D0002DE9F05F04006FD0FE4E41F20308DFF8F3
:1024E000F493FC4FA6F10405206809F10C09243788
:1024F00080B1C10711D181076CD4C1067DD4010719
:102500007CD441077BD480067AD4F3A04FF4CF71FA
:1025100002F014F92078C00759D060684FF4803A6F
:102520004FF4A02B40B1504506D0584504D0EAA046
:1025300040F2A31102F002F9D9F80000396800F066
:10254000380010280CD0182803D101F0030002280D
:1025500006D0606850450AD1286840F4803010E009
:102560002868800333D560680028B4D02FE008B114
:1025700058450DD0286820F480302860286820F461
:1025800080202860606898B1FEF784F982460BE0ED
:10259000286840F480202860DEE700BFFEF77AF963
:1025A000A0EB0A00642873D828688003F6D50EE0F3
:1025B000FEF770F9824607E032E100BFFEF76AF9E4
:1025C000A0EB0A006428EED828688003F6D42078AF
:1025D000800770D5E06860B101280AD0092808D0CA
:1025E000112806D0192804D0BBA040F2D71102F060
:1025F000A5F820697F2809D903E05FE0CFE0EEE08D
:1026000004E14FF4EC71B4A002F098F8D9F800009E
:10261000396810F038000ED0182801D188070AD088
:10262000E068A0B3296821F0190101432960FEF791
:1026300031F982461AE02868400702D5E068002890
:1026400093D0FEF721F940451AD82069402811D0CF
:10265000316821F47C3141EA003030602BE000BF6A
:10266000FEF718F9A0EB0A0002289CD8286840075A
:10267000F6D5E6E7306820F47C3040F40030ECE733
:10268000207C316821F0FE4141EA0060E5E700E08E
:1026900053E2286820F001002860FEF7FBF882462C
:1026A00006E000BFFEF7F6F8A0EB0A0002288AD881
:1026B00028684007F6D42078C0066DD5E06930B1AF
:1026C000802804D084A040F21A2102F037F8206A52
:1026D0003F2804D980A040F21B2102F02FF8D9F83E
:1026E0000000DFF8F0B1396800F038000BF1080B9A
:1026F000082810D0182803D101F0030001280AD0BF
:10270000E0690028286837D040F080002860FEF794
:10271000C1F8824622E02868C00522D5E0698028F9
:102720007ED11EE0206A202820D0316821F0F841B7
:1027300041EA806030602FE094F82010DBF8002040
:1027400022F07C5242EA0161CBF8001024E000BF85
:10275000FEF7A0F8A0EB0A00022886D82868C0057A
:10276000F6D5FEF791F84045E6D8DBE7306820F073
:10277000F84040F08040DDE720F080002860FEF760
:1027800089F8064605E000BFFEF784F8801B0228A2
:102790008DD82868C005F7D42078000733D54D4E72
:1027A00060697036E0B1012806D04FF417714AA075
:1027B00001F0C4FF606998B13168B04641F0010191
:1027C0003160FEF767F8064605E000BFFEF762F8E5
:1027D000801B0228C1D8D8F800008007F6D512E087
:1027E0003168B04621F001013160FEF753F806462A
:1027F00005E000BFFEF74EF8801B0228ADD8D8F8E0
:1028000000008007F6D4207880062FD5A069E0B1BB
:10281000012808D030A040F2872101F08FFF00E0AE
:10282000BAE1A06988B1286840F480502860FEF7BA
:1028300031F8064605E000BFFEF72CF8801B0228A1
:102840008BD828688004F7D510E0286820F48050E1
:102850002860FEF71FF8064605E000BFFEF71AF8ED
:10286000801B022894D828688004F7D42078400779
:1028700079D5A06840B1012806D0052804D016A05B
:1028800040F2B12101F05AFFDFF88480D8F800103F
:1028900041F48071C8F80010FDF7FCFF064604E023
:1028A000FDF7F8FF801B642894D8D8F80000C00515
:1028B000F6D5084EA0686C3601282BD008B1052843
:1028C00034D0306820F001003060306820F004001F
:1028D00023E00000044402582E2E2F4472697665CE
:1028E00072732F53544D3332483778785F48414CD8
:1028F0005F4472697665722F5372632F73746D3300
:1029000032683778785F68616C5F7263632E63004A
:1029100000480258306840F001003060A06841F281
:10292000883A98B1FDF7B6FF80460BE0306840F07A
:1029300004003060EEE700BFFDF7ACFFA0EB08013C
:1029400051458FD830688007F6D50CE0FDF7A2FF1F
:10295000804605E0FDF79EFFA0EB08015145A3D896
:1029600030688007F6D4606A002872D001280AD047
:10297000022808D040F2E321AFF2A40001F0DEFE0D
:10298000606A0028F1D0DFF81882D9F80000C0F39F
:10299000C20003287ED0606A022807D0286820F091
:1029A00080702860FDF776FF0446C9E0A06A012820
:1029B0000AD048B1032807D0022805D04FF43B7154
:1029C000AFF2EC0001F0BAFEE06A401E3E2805D9E5
:1029D00040F2ED21AFF2001001F0B0FE206B001FBD
:1029E000B0F5FE7F05D940F2EE21AFF2141001F0F0
:1029F000A5FE606B401E7F2805D940F2EF21AFF2A3
:102A0000281001F09BFEA06B401E7F2805D94FF4D3
:102A10003C71AFF23C1001F091FEE06B401E7F284C
:102A200005D940F2F121AFF2501001F087FEA06C01
:102A3000B0F5005F05D340F2F221AFF2641001F06F
:102A40007DFE286820F080702860FDF723FF064691
:102A500005E0A3E0FDF71EFF801B02286DD8286863
:102A60008001F7D4E26A40F2F331386854F8283F25
:102A7000884340EA021018433860217B4FF4FE0C73
:102A800022894FF0FE47208A4902267D521EC2F35A
:102A9000080200E058E0A1F5007189B2401E114320
:102AA000761E0CEA004001433D4807EA06621143E6
:102AB0003B4A001FC8F80010121D016821F00101F7
:102AC000016011684FF6F876236AB14341EAC30109
:102AD00011600168A26921F00C01114301600168D5
:102AE000E26921F0020111430160016841F4803183
:102AF0000160016841F400310160016841F4802106
:102B00000160016841F001010160286840F08070B7
:102B10002860FDF7BFFE044605E000BFFDF7BAFEE2
:102B2000001B022809D828688001F7D536E000BFCD
:102B3000FDF7B0FE001B022802D90320BDE8F09F7C
:102B400028688001F4D429E0626A3968D8F8000066
:102B5000012A21D0A26A01F0030393421CD1E26A48
:102B6000C1F305118A4217D1216BC0F30802491E37
:102B70008A4211D1616BC0F34622491E91420BD1AA
:102B8000A16BC0F30642491E914205D1E16BC0F32F
:102B90000660491E814201D00120CFE70020CDE729
:102BA0003044025870B504004FF001007ED0464911
:102BB0002068884203D0EB2144A001F0BFFD60688B
:102BC000402804D018B1EC2140A001F0B7FDA06866
:102BD0007F2803D9ED213DA001F0B0FDE068B0F5FC
:102BE000004F03D3EE2139A001F0A8FD206960B1A8
:102BF000B0F5001F09D0B0F5800F06D0B0F5C00FBA
:102C000003D0EF2131A001F099FD606928B10228BD
:102C100003D0F0212DA001F091FDA06930B1B0F5F5
:102C2000801F03D0F12129A001F088FDE06928B1BF
:102C3000012803D0F22125A001F080FD94F82100A5
:102C400028B9002084F82000204600F05DF802201A
:102C500084F82100CA212268532051622168486209
:102C6000204600F0CDFF28BB2068264A816811402D
:102C70008160D4E90003A569226981682A43194368
:102C80001143816022682189E06840EA01401061B7
:102C9000204600F0D7FF68B92168CA6C22F0030211
:102CA000CA6422686369E169D56C00E00AE01943EF
:102CB0002943D1642268FF215162002802D10121F9
:102CC00084F8211070BD0000004000582E2E2F44C3
:102CD0007269766572732F53544D33324837787862
:102CE0005F48414C5F4472697665722F5372632F5F
:102CF00073746D3332683778785F68616C5F7274B3
:102D0000632E6300BFFF8FFF00680449884204D12F
:102D10000348016841F400410160704700400058D9
:102D20007044025870B504460068C16821F0A001E3
:102D3000C160FDF7AFFD4FF47A76054607E000BFAE
:102D4000FDF7A8FD401BB04201D9032070BD2068EB
:102D5000C0688006F4D5002070BD00002DE9F05F4A
:102D600004007DD0C34D2068C34EC44FA84210D08C
:102D7000B0420ED0B8420CD0C149884209D0C149F6
:102D8000884206D0C049884203D0F621BFA001F096
:102D9000D5FC606830B1B0F5800F03D0F721BBA03F
:102DA00001F0CCFCA06860B1B0F5802F09D0B0F57F
:102DB000C02F06D0B0F5003F03D0F821B3A001F03A
:102DC000BDFCE0681F283BD01E2839D01D2837D015
:102DD0001C2835D01B2833D01A2831D019282FD0E1
:102DE00018282DD017282BD0162829D0152827D001
:102DF000142825D0132823D0122821D011281FD021
:102E000010281DD00F281BD00E2819D00D2817D040
:102E10000C2815D00B2813D00A2811D009280FD060
:102E200008280DD007280BD0062809D0052807D080
:102E3000042805D0032803D0F92194A001F07EFCDA
:102E4000E06B58B3202829D0402827D0602825D00F
:102E5000802823D0A02821D0C0281FD0E02800E05F
:102E60009CE01BD0B0F5807F18D0B0F5907F15D0D6
:102E7000B0F5A07F12D0B0F5B07F0FD0B0F5C07F15
:102E80000CD0B0F5D07F09D0B0F5E07F06D0B0F51A
:102E9000F07F03D0FA217DA001F050FCA0694FF033
:102EA000806B4FF00059584506D028B1484503D0F3
:102EB000FB2176A001F042FC606B4FF0804840455A
:102EC00004D018B1FC2171A001F038FCE069B0B168
:102ED000B0F1805F13D0484511D0B0F1405F0ED003
:102EE00040450CD0B0F1A04F09D0B0F1C04F06D092
:102EF000B0F1E04F03D0FD2164A001F01FFC206A77
:102F000030B1B0F5000F03D0FE2160A001F016FC37
:102F1000606A40B1B0F5002F19D0FF215BA001F02D
:102F20000DFC606A98B9206938B1B0F1007F04D017
:102F300056A04FF4817101F001FC606938B1B0F125
:102F4000807F04D051A040F2031101F0F7FB20680C
:102F50004FF00009C4F82890A84206D0B04204D02F
:102F6000B84202D0E1680F2918D8E1684FF0010A91
:102F7000E36B0831C9080AEB53125143A84205D04C
:102F8000B04203D0B84201D0082907D8A84203D0E4
:102F9000B04201D0B84204D1102902D90120BDE8C5
:102FA000F09F94F8810020B9204684F8809000F0CA
:102FB00089F8022084F881002068016821F001016D
:102FC0000160A06958450AD16068B0F5800F06D14C
:102FD000A06B20B92068016841F480510160A56AA6
:102FE000E0692368E16B2843E26808431043986076
:102FF000D4E90D01D4E90582656A23691143D4F847
:1030000020C02843256808431843A36DD4E9016113
:10301000D4E9122740EA080040EA0C003043384364
:10302000084310431843E860606868B92068816805
:1030300021F4C05141F4006181602068816821F46D
:10304000C06141F4806181602068016D21F001015F
:1030500001656068400206D52068626DC16821F094
:1030600000411143C160C4F8849084F881A000201D
:1030700095E700000030014000380040003C00406F
:103080000034014000500140001400582E2E2F44FF
:103090007269766572732F53544D3332483778789E
:1030A0005F48414C5F4472697665722F5372632F9B
:1030B00073746D3332683778785F68616C5F7370F2
:1030C000692E630010B586B0044614216846FDF7EA
:1030D000CAF91349206888421FD11248016841F497
:1030E00080510160006800F4805005900D48103850
:1030F000016841F00101016000680523E02100F052
:10310000010005900020009102226946CDE90120CE
:10311000CDE903030448FDF70FFA06B010BD000027
:1031200000300140F044025800000258401EB0F147
:10313000807F10B501D3012010BD4FF0E024606105
:103140000F21601701F0E9FA0020A0610721216139
:1031500010BD000070B51F4904460068884219D0B0
:103160001D49884216D01D49884213D01C49884207
:1031700010D01C4988420DD01B4988420AD01B49F7
:10318000884207D01A49884204D01AA040F211217F
:1031900001F0D4FA94F87C00012818D0012184F8B9
:1031A0007C102420C4F880000021202354F8600BF8
:1031B0000268056822F0005225F001050560616093
:1031C00054F8600C026023620846217770BD02202B
:1031D00070BD000000100140004400400048004065
:1031E000004C0040005000400014014000780040B6
:1031F000007C00402E2E2F447269766572732F5327
:10320000544D3332483778785F48414C5F44726997
:103210007665722F5372632F73746D33326837780B
:10322000785F68616C5F756172745F65782E6300AA
:1032300070B50D462B4904460068884219D02A49CA
:10324000884216D02949884213D02949884210D093
:10325000284988420DD0284988420AD02749884207
:1032600007D02749884204D04FF41C7125A001F0F3
:1032700065FA9DB1B5F1007F10D0B5F1806F0DD02A
:10328000B5F1C06F0AD0B5F1006F07D0B5F1206F6E
:1032900004D01CA040F2712101F050FA94F87C0097
:1032A00001281DD0012184F87C102420C4F880005E
:1032B00020680668016821F00101016020688168CA
:1032C00021F0606129438160204600F0C5FD22683D
:1032D000202100201660C4F8801084F87C0070BDA6
:1032E000022070BD00100140004400400048004032
:1032F000004C0040005000400014014000780040A5
:10330000007C00402E2E2F447269766572732F5315
:10331000544D3332483778785F48414C5F44726986
:103320007665722F5372632F73746D3332683778FA
:10333000785F68616C5F756172745F65782E630099
:1033400070B50D462B4904460068884219D02A49B9
:10335000884216D02949884213D02949884210D082
:10336000284988420DD0284988420AD027498842F6
:1033700007D02749884204D026A040F23F2101F01F
:10338000DDF99DB1B5F1005F10D0B5F1804F0DD0E2
:10339000B5F1C04F0AD0B5F1004F07D0B5F1204FBD
:1033A00004D04FF410711BA001F0C8F994F87C0010
:1033B00001281DD0012184F87C102420C4F880004D
:1033C00020680668016821F00101016020688168B9
:1033D00021F0604129438160204600F03DFD2268D4
:1033E000202100201660C4F8801084F87C0070BD95
:1033F000022070BD00100140004400400048004021
:10340000004C004000500040001401400078004093
:10341000007C00402E2E2F447269766572732F5304
:10342000544D3332483778785F48414C5F44726975
:103430007665722F5372632F73746D3332683778E9
:10344000785F68616C5F756172745F65782E630088
:103450002DE9F047040024D0A0693649364A0028F7
:10346000364B374D374E384FDFF8E0C0DFF8E0809D
:10347000DFF8E090206817D088422CD090422AD004
:10348000984228D0A84226D0B04224D0B84222D0B8
:10349000604520D040451ED048451CD04FF49A715D
:1034A00016E00120BDE8F087884214D0904212D087
:1034B000984210D0A8420ED0B0420CD0B8420AD0E8
:1034C000604508D0404506D0484504D040F2391147
:1034D00021A001F033F9D4F8800028B9002084F845
:1034E0007C00204600F056F82420C4F880002068B4
:1034F000016821F001010160204600F029FE012849
:10350000D0D0A06A10B1204600F0D8FC20684168F5
:1035100021F4904141602068816821F02A01816096
:103520002068016841F0010101602046BDE8F047D4
:1035300000F0DEBD001001400044004000480040A3
:10354000004C004000500040001401400078004052
:10355000007C0040000C00582E2E2F4472697665C6
:1035600072732F53544D3332483778785F48414C4B
:103570005F4472697665722F5372632F73746D3373
:1035800032683778785F68616C5F756172742E633A
:103590000000000010B586B0044614216846FCF710
:1035A00062FF13492068884220D11248016841F027
:1035B00010010160006800F0100005900D481038FF
:1035C000016841F00201016000680423022200F05A
:1035D0000200059000204FF4404100916946CDE97A
:1035E0000120CDE903030448FCF7A6FF06B010BD97
:1035F00000100140F044025800040258FEE70000A9
:10360000114808B5016841F010010160016801F03E
:1036100010010091016841F001010160016801F0B1
:1036200001010091016841F002010160016801F0AF
:1036300002010091016841F008010160006800F09A
:103640000800009008BD0000E04402580649002030
:1036500010B508600846FDF723F9002803D0BDE83F
:103660001040FCF766BF10BD140000240A4840F665
:10367000FF71084B002210B50360C160C0E9012151
:10368000FDF778F9002803D0BDE81040FCF751BFE2
:1036900010BD000000480058580000240C480021CC
:1036A00010B50122094CFF23C0E90221C0E9042121
:1036B0008161C1610162C0E90043FDF719FB002887
:1036C00003D0BDE81040FCF734BF10BD00500052DD
:1036D000680000240C4800210A4A7F2310B5FF240B
:1036E00004C080E81A00C160416181610161001F6E
:1036F000FFF758FA002803D0BDE81040FCF719BFC7
:1037000010BD000000400058B40000241348002100
:10371000032310B5104C4FF08062C0E90041C0E9AE
:1037200002130161C0E90512016241628162C16256
:1037300041638163C163016441648164C164016563
:1037400041658165FFF70AFB002803D0BDE8104002
:10375000FCF7EFBE10BD000000300140D80000248F
:103760001848002110B5164C0C224FF4E1330460C8
:10377000C0E90131C160C0E904128161C161016227
:1037800041628162FFF764FE08B1FCF7D2FE0D488A
:103790000021FFF7D5FD08B1FCF7CBFE0948002159
:1037A000FFF746FD08B1FCF7C4FE0648FFF7D2FC60
:1037B000002803D0BDE81040FCF7BBBE10BD0000E0
:1037C0000010014060010024FEE7FEE770472DE98C
:1037D000F041984616460F460446069D08E0681CD0
:1037E00006D0FDF757F8A0EB0800A8420AD84DB163
:1037F00020688068384000D00120B042EFD100201E
:10380000BDE8F081042084F84100606C40F00100C4
:1038100060640120F4E700002DE9F0478946016863
:1038200004464FF0000A491E3E2904D966A040F61E
:10383000B24100F083FF6068001FB0F5FE7F04D93D
:1038400061A040F6B34100F079FFA068401E7F28D8
:1038500004D95DA040F6B44100F070FF2069401E1D
:103860007F2804D958A040F6B54100F067FFE06812
:10387000401E7F2804D954A040F6B64100F05EFFF8
:10388000606950B1402808D0802806D0C02804D0F4
:103890004DA040F6B74100F051FFA06930B120289B
:1038A00004D049A040F6B84100F048FFE069B0F507
:1038B000005F04D344A040F6B94100F03FFF514FF0
:1038C0003868C04380070AD04E4D283D286820F054
:1038D00080602860FCF7DEFF0646A84607E001206E
:1038E000BDE8F087FCF7D6FF801B022865D8D8F822
:1038F00000000001F6D4206839684FF4FE0C4FF048
:10390000FE4621F47C3141EA00303860217AA788F4
:10391000A38949023B4D7F1E3A485B1E227C10352D
:10392000001DA1F5007189B2521EC7F30807394383
:103930000CEA0343194306EA026211432960016855
:10394000626921F0C001114301600268A16922F09F
:1039500020020A430260291D026822F01002026060
:103960000A684FF6F873E4699A4342EAC4020A60AF
:103970000168B9F1000F41F01002026011D0016836
:10398000B9F1010F11D041F400110160D8F8000025
:10399000444640F08060C8F80000FCF77BFF054615
:1039A0000DE0016841F40021EFE741F48011ECE7FC
:1039B000FCF770FF401B022801D9032090E7206824
:1039C0000001F5D550468BE72E2E2F44726976659F
:1039D00072732F53544D3332483778785F48414CD7
:1039E0005F4472697665722F5372632F73746D33FF
:1039F00032683778785F68616C5F7263635F65789F
:103A00002E630000284402582DE9F04789460168DA
:103A100004464FF0000A491E3E2904D968A040F62A
:103A20001A5100F08BFE6068001FB0F5FE7F04D9CC
:103A300063A040F61B5100F081FEA068401E7F2865
:103A400004D95FA040F61C5100F078FE2069401EAA
:103A50007F2804D95AA040F61D5100F06FFEE0689F
:103A6000401E7F2804D956A040F61E5100F066FE85
:103A7000606968B1B0F5806F0AD0B0F5006F07D00B
:103A8000B0F5406F04D04EA040F61F5100F056FE36
:103A9000A06938B1B0F5007F04D04FF4526148A05E
:103AA00000F04CFEE069B0F5005F04D344A040F69E
:103AB000215100F043FE514F3868C04380070AD0BF
:103AC0004E4D283D286820F080502860FCF7E2FE2B
:103AD0000646A84607E00120BDE8F087FCF7DAFEBD
:103AE000801B022865D8D8F800008000F6D4208812
:103AF00039684FF4FE0C4FF0FE4621F07C7141EA2C
:103B000000503860217AA788A38949023B4D7F1E67
:103B10003A485B1E227C1835001DA1F5007189B260
:103B2000521EC7F3080739430CEA0343194306EA58
:103B30000262114329600168626921F44061114306
:103B400001600268A16922F400720A430260291D23
:103B5000026822F4807202600A684FF6F873E46922
:103B60009A4342EAC4020A600168B9F1000F41F4C5
:103B70008072026011D00168B9F1010F11D041F0DB
:103B800080710160D8F80000444640F08050C8F8C9
:103B90000000FCF77FFE05460DE0016841F480015E
:103BA000EFE741F40001ECE7FCF774FE401B02284C
:103BB00001D9032090E720688000F5D550468BE7B7
:103BC0002E2E2F447269766572732F53544D333203
:103BD000483778785F48414C5F4472697665722F48
:103BE0005372632F73746D3332683778785F68610E
:103BF0006C5F7263635F65782E630000284402582F
:103C00002DE9F041044600680025C168490615D435
:103C1000691EC160FCF73EFE032706464FF47A7822
:103C200008E000BFFCF736FE801B404502D90325A3
:103C300084F821702068C0684006F3D52846BDE8A6
:103C4000F08100002DE9F041124C032706460025C3
:103C5000E06820F04000E060A068800607D43046AD
:103C6000FFF760F890B1032586F821700EE0A06898
:103C700020F02000A0603046FFF754F810B1032573
:103C800086F82170A06840F02000A0602846BDE8BA
:103C9000F0810000004000587047FCF7E5BE0000CE
:103CA00070B5CCB04C212FA8FCF7DDFB202142A839
:103CB000FCF7D9FBBC216846FCF7D5FB0220FCF7DA
:103CC000C5FF294929480A6822F001020A600968EB
:103CD0000168002441F440410160016801F4404161
:103CE0004A9101688904FCD54025012102200A225D
:103CF0002F92CDE932153491042332263A93CDE93F
:103D00003804CDE93B603EAE3D900C2286E81500BC
:103D10002FA84194FEF7DCFB08B172B6FEE708223B
:103D2000CDE94525D30142AA3F20CDE947530321E0
:103D3000499582E81300022142A8FEF791F808B1E4
:103D400072B6FEE710210A4817941E944A012C927D
:103D5000129100906846FDF76DFA002801D072B606
:103D6000FEE74CB070BD00002C0400581848025803
:103D7000011040022E48F0B52E4A016841F470014E
:103D80000160106800F00F00072804D2106820F0CE
:103D90000F00C01D106028490020274C10340B680C
:103DA000264D43F001030B6020600B682B400B6035
:103DB000136803F00F03072B04D9136823F00F03D4
:103DC000DB1D13601C4C1E4A18341E4B261D371D6C
:103DD0002060194C1C4D28343060261D3860371D7A
:103DE00023603B1D35601C1D3A60251D2E1D18608B
:103DF000331D22602860326018600A680E4B134C35
:103E000022F4802260330A60186020686FF30F008C
:103E1000B0F1005F03D20E490120C1F8080143F25E
:103E2000D2000C49024B4A03803B08601A60F0BD87
:103E300088ED00E000200052004402587FEDF6EAD1
:103E400080020101000202020000FF010010005C7C
:103E500000800051004000523FB514A1D1E9002379
:103E600014A1CDE90023D1E90021CDE90221416E61
:103E7000B9B1016802AC8A688968C2F34262490F2D
:103E80001DF80150615C2D01B5FBF1F1A0F86A103D
:103E90001DF80210A25C0901B1FBF2F1A0F8681054
:103EA0003FBD0121A0F86A10F8E7000001010103FD
:103EB00007010000080402040801010170B504466E
:103EC000806AFF2804D973A040F6344100F036FC24
:103ED00094F82800C00710D0E06A38B1B0F5003F70
:103EE00004D06CA040F6394100F028FC2068E26A5A
:103EF000416821F400311143416094F828008007A3
:103F000010D5206B38B1B0F5803F04D04FF4446138
:103F100060A000F013FC2068226B416821F480311E
:103F20001143416094F82800400710D5606B38B108
:103F3000B0F5802F04D057A040F6474100F0FEFBBB
:103F40002068626B416821F480211143416094F83C
:103F50002800000710D5A06B38B1B0F5004F04D091
:103F60004CA040F64E4100F0E9FB2068A26B41688E
:103F700021F400411143416094F82800C00610D597
:103F8000E06B38B1B0F5805F04D042A040F65541F7
:103F900000F0D4FB2068E26B816821F4805111436A
:103FA000816094F82800800610D5206C38B1B0F5F7
:103FB000005F04D037A040F65C4100F0BFFB2068F2
:103FC000226C816821F400511143816094F828002B
:103FD000400649D53E492068884219D03D4988426B
:103FE00016D03D49884213D03C49884210D03C4904
:103FF00088420DD03B4988420AD03B49884207D0CD
:104000003A49884204D023A040F6634100F096FB71
:10401000606C4FF4801530B1A84204D01DA040F66A
:10402000644100F08BFB2068626C416821F48011D0
:1040300011434160606CA84216D1A06C68B1B0F524
:10404000001F0AD0B0F5800F07D0B0F5C00F04D024
:1040500010A040F6694100F071FB2068A26C416835
:1040600021F4C0011143416094F82800000610D5E6
:10407000E06C38B1B0F5002F04D006A040F67141D5
:1040800000F05CFB2068E26C416821F400211143E0
:10409000416070BD2E2E2F447269766572732F5366
:1040A000544D3332483778785F48414C5F447269E9
:1040B0007665722F5372632F73746D33326837785D
:1040C000785F68616C5F756172742E630000000038
:1040D000001001400044004000480040004C0040F7
:1040E000005000400014014000780040007C004077
:1040F000F8B500260446C0F88860FCF7CBFB0546FF
:1041000020686FF07E470068000708D500222B4624
:104110004FF400112046009700F0ACFA60B9206817
:10412000006840070AD500222B464FF48001204644
:10413000009700F09FFA08B10320F8BD2020C4F8D2
:10414000800084F87C60C4F884000020F8BD000082
:104150002DE9F047FE490446406886B04FF000065E
:10416000884204D3FBA040F6363100F0E7FAA0689D
:104170004FF48055B0F1805F07D030B1A84204D031
:10418000F4A040F6373100F0D9FADFF804844FF498
:10419000005120684045E06806D100281BD08842C5
:1041A00019D040F63A3113E0A8420AD048B1B0F530
:1041B000405F06D0884204D0E6A040F63E3100F0D1
:1041C000BDFA206A38B1B0F5006F04D040F63F3137
:1041D000E0A000F0B3FA206950B1B0F5806F07D0CD
:1041E000B0F5C06F04D0DBA040F6423100F0A6FA73
:1041F000606930F00C0100D120B9D6A040F64331FF
:1042000000F09CFAA06968B1B0F5807F0AD0B0F5E3
:10421000007F07D0B0F5407F04D0CEA040F64431F7
:1042200000F08CFAE0694FF4004530B1A84204D0A8
:10423000C8A040F6453100F081FA606AD0B101288B
:1042400018D0022816D0032814D0042812D005282C
:1042500010D006280ED007280CD008280AD009282C
:1042600008D00A2806D00B2804D0BAA040F6463160
:1042700000F064FA2268D4E904C3A068E769616EBB
:1042800040EA0C00DFF80CC33B43176818430143B6
:1042900007EA0C070F4317602068E268416821F4C1
:1042A0004051114341602268A169424501D0206A12
:1042B00001439768DFF8E0C2B84BB94807EA0C073A
:1042C0000F4397602168676ACA6A22F00F023A4377
:1042D000CA6222689A420ED1006800F0380018289D
:1042E00073D047DCB8B3082879D010286FD178E0B4
:1042F00028287ED17BE0AB498A4209D1006800F0D2
:104300000700062875D2DFE800F0546A6C6E707200
:10431000A5498A4209D1006800F00700062868D242
:10432000DFE800F0475D5F616365A0498A4209D11B
:10433000006800F0070006285BD2DFE800F03A5082
:10434000525456589A498A420BD1006800F007002F
:1043500006284ED200E010E0DFE800F02B41434594
:10436000474994498A420AD1006800F03800182869
:1043700039D0B7DD2028BBD13CE001203AE08E499E
:104380008A4209D1006800F00700062831D2DFE830
:1043900000F01026282A2C2E88498A420BD100686A
:1043A00000F00700062824D2DFE800F003191B1DE7
:1043B0001F2100201EE042451BD17948001D0068E6
:1043C00000F00700062814D202E00CE007E010E03D
:1043D000DFE800F0030507090B0D02200AE00420C6
:1043E00008E0082006E0102004E0202002E0402041
:1043F00000E0802072494245DFF8C881724A4FF0E0
:1044000000094FEA211350D1102819D006DC0228E8
:1044100009D004280AD008287ED10CE0202840D0FA
:10442000402879D13FE0FCF7AFFD11E06846FCF78A
:10443000BDFD01980CE003A8FCF75AFE049807E0C4
:1044400010688006084604D51168C1F3C101C84050
:10445000C8B3616A676838F8112007EB4703B0FBFF
:10446000F2F18B4258D8B1EB073F55D80023C8462C
:104470001946FBF781FF0902020241EA10615FEA77
:1044800058004FEA370010183A46002341EB080164
:10449000FBF772FF4D4AA0F5407191423CD821686C
:1044A0004BE01846D5E72846D3E7E7694FF6EF7AA1
:1044B000AF424CD1082819D006DC60B101280DD0DC
:1044C000042829D10DE039E0102814D020287FD00D
:1044D000402821D187E0FDF73BFF14E0FDF74AFFBC
:1044E00011E06846FCF762FD01980CE003A8FCF7B8
:1044F000FFFD049807E01068800670D51068C0F3CF
:10450000C10021FA00F0C8B1636A616838F813305D
:10451000B0FBF3F0400000E077E000EB5100B0FBAF
:10452000F1F080B2A0F1100151456ED84FF6F07352
:104530002168C0F3420218401043C8600121A4F86A
:104540006A103046A4F86810C4F86C9042E04CE061
:1045500021BCBE002E2E2F447269766572732F53D4
:10456000544D3332483778785F48414C5F44726924
:104570007665722F5372632F73746D333268377898
:10458000785F68616C5F756172742E630000000073
:10459000000C0058F369FFCFFFF4FF110010014039
:1045A000544402580044004000480040004C004081
:1045B000005000400014014000780040007C0040A2
:1045C0000090D003E647000800440258FFFC0F00AB
:1045D00007E004E0C4F8709006B0BDE8F087084634
:1045E00092E7184690E728468EE7082819D005DCA0
:1045F00060B101280DD0042833D10DE0102815D06A
:10460000202832D040282CD131E02AE0FDF7A0FE4E
:1046100014E0FDF7AFFE11E06846FCF7C7FC019817
:104620000CE003A8FCF764FD049807E0106880061E
:1046300019D51068C0F3C10021FA00F000283FF43A
:104640007DAF636A616838F81330B0FBF3F000EBBC
:104650005100B0FBF1F080B2A0F1100151457FF69E
:104660001EAF01266AE70846EBE71846E9E7284649
:10467000E7E700002DE9F0479A4617460E46044644
:10468000089D4FF000094FF0200839E0681C37D032
:10469000FCF700F9A0EB0A00A84222D80DB320686D
:1046A000016849072CD5C069C043000528D4236898
:1046B0004FF40061196221680B6823F4D0730B601A
:1046C00021688B6823F001038B60C4F88080C4F8F4
:1046D0008480C4F8888000BF032084F87C90BDE803
:1046E000F08721680B6823F4D0730B6021688B6816
:1046F00023F001038B60C4F88080C4F88480EBE76A
:104700002068C06936EA000004D00020B842BDD05D
:104710000020E4E70120F9E7FEE7090700284FEA57
:10472000116104DB00F1E02080F80014704700F014
:104730000F0000F1E02080F8141D70477047000062
:10474000BFF34F8FBFF36F8F224900200860BFF384
:104750004F8FBFF36F8F204A116841F40031116011
:10476000BFF34F8FBFF36F8F1B4970310860BFF3EA
:104770004F8F081F43F6FF740068164D1035C0F3C5
:104780004E31C0F3C90304EA4116184646EA807761
:104790002F60401EFAD2491EF5D2BFF34F8F10682A
:1047A00040F480301060BFF34F8FBFF36F8FFCF782
:1047B00063F9FFF775FAFEF723FFFEF7A7FFFEF791
:1047C00045FFFEF753FFFEF769FFFEF783FFFEF795
:1047D000C7FFFEE750EF00E014ED00E04FF040703F
:1047E000E1EE100A70470100020004000600080014
:1047F0000A000C00100020004000800000010000B2
:104800000000010203040102030406070809000076
:10481000304800080000002414000000D402000802
:1048200044480008140000243C080000F00200087E
:104830000100000010000000000000000090D00304
:044840000090D00311
:040000050800029954
:00000001FF
